{
  "contractName": "CredentialVerifier",
  "abi": [
    {
      "inputs": [],
      "stateMutability": "nonpayable",
      "type": "constructor"
    },
    {
      "inputs": [
        {
          "internalType": "address",
          "name": "owner",
          "type": "address"
        }
      ],
      "name": "OwnableInvalidOwner",
      "type": "error"
    },
    {
      "inputs": [
        {
          "internalType": "address",
          "name": "account",
          "type": "address"
        }
      ],
      "name": "OwnableUnauthorizedAccount",
      "type": "error"
    },
    {
      "anonymous": false,
      "inputs": [
        {
          "indexed": true,
          "internalType": "uint256",
          "name": "credentialId",
          "type": "uint256"
        },
        {
          "indexed": true,
          "internalType": "bytes32",
          "name": "credentialHash",
          "type": "bytes32"
        },
        {
          "indexed": true,
          "internalType": "address",
          "name": "candidate",
          "type": "address"
        },
        {
          "indexed": false,
          "internalType": "address",
          "name": "issuer",
          "type": "address"
        },
        {
          "indexed": false,
          "internalType": "string",
          "name": "credentialType",
          "type": "string"
        }
      ],
      "name": "CredentialIssued",
      "type": "event"
    },
    {
      "anonymous": false,
      "inputs": [
        {
          "indexed": true,
          "internalType": "uint256",
          "name": "credentialId",
          "type": "uint256"
        },
        {
          "indexed": true,
          "internalType": "address",
          "name": "verifier",
          "type": "address"
        }
      ],
      "name": "CredentialVerified",
      "type": "event"
    },
    {
      "anonymous": false,
      "inputs": [
        {
          "indexed": true,
          "internalType": "address",
          "name": "issuer",
          "type": "address"
        },
        {
          "indexed": false,
          "internalType": "string",
          "name": "name",
          "type": "string"
        }
      ],
      "name": "IssuerAuthorized",
      "type": "event"
    },
    {
      "anonymous": false,
      "inputs": [
        {
          "indexed": true,
          "internalType": "address",
          "name": "issuer",
          "type": "address"
        }
      ],
      "name": "IssuerRevoked",
      "type": "event"
    },
    {
      "anonymous": false,
      "inputs": [
        {
          "indexed": true,
          "internalType": "address",
          "name": "previousOwner",
          "type": "address"
        },
        {
          "indexed": true,
          "internalType": "address",
          "name": "newOwner",
          "type": "address"
        }
      ],
      "name": "OwnershipTransferred",
      "type": "event"
    },
    {
      "inputs": [
        {
          "internalType": "address",
          "name": "",
          "type": "address"
        }
      ],
      "name": "authorizedIssuers",
      "outputs": [
        {
          "internalType": "bool",
          "name": "",
          "type": "bool"
        }
      ],
      "stateMutability": "view",
      "type": "function",
      "constant": true
    },
    {
      "inputs": [
        {
          "internalType": "address",
          "name": "",
          "type": "address"
        },
        {
          "internalType": "uint256",
          "name": "",
          "type": "uint256"
        }
      ],
      "name": "candidateCredentials",
      "outputs": [
        {
          "internalType": "uint256",
          "name": "",
          "type": "uint256"
        }
      ],
      "stateMutability": "view",
      "type": "function",
      "constant": true
    },
    {
      "inputs": [
        {
          "internalType": "uint256",
          "name": "",
          "type": "uint256"
        }
      ],
      "name": "credentials",
      "outputs": [
        {
          "internalType": "uint256",
          "name": "id",
          "type": "uint256"
        },
        {
          "internalType": "bytes32",
          "name": "credentialHash",
          "type": "bytes32"
        },
        {
          "internalType": "string",
          "name": "ipfsHash",
          "type": "string"
        },
        {
          "internalType": "address",
          "name": "candidate",
          "type": "address"
        },
        {
          "internalType": "address",
          "name": "issuer",
          "type": "address"
        },
        {
          "internalType": "uint256",
          "name": "timestamp",
          "type": "uint256"
        },
        {
          "internalType": "bool",
          "name": "isVerified",
          "type": "bool"
        },
        {
          "internalType": "string",
          "name": "credentialType",
          "type": "string"
        },
        {
          "internalType": "string",
          "name": "institutionName",
          "type": "string"
        }
      ],
      "stateMutability": "view",
      "type": "function",
      "constant": true
    },
    {
      "inputs": [
        {
          "internalType": "bytes32",
          "name": "",
          "type": "bytes32"
        }
      ],
      "name": "hashToCredentialId",
      "outputs": [
        {
          "internalType": "uint256",
          "name": "",
          "type": "uint256"
        }
      ],
      "stateMutability": "view",
      "type": "function",
      "constant": true
    },
    {
      "inputs": [
        {
          "internalType": "address",
          "name": "",
          "type": "address"
        }
      ],
      "name": "issuers",
      "outputs": [
        {
          "internalType": "string",
          "name": "name",
          "type": "string"
        },
        {
          "internalType": "string",
          "name": "website",
          "type": "string"
        },
        {
          "internalType": "bool",
          "name": "isAuthorized",
          "type": "bool"
        },
        {
          "internalType": "uint256",
          "name": "registrationDate",
          "type": "uint256"
        }
      ],
      "stateMutability": "view",
      "type": "function",
      "constant": true
    },
    {
      "inputs": [],
      "name": "owner",
      "outputs": [
        {
          "internalType": "address",
          "name": "",
          "type": "address"
        }
      ],
      "stateMutability": "view",
      "type": "function",
      "constant": true
    },
    {
      "inputs": [],
      "name": "renounceOwnership",
      "outputs": [],
      "stateMutability": "nonpayable",
      "type": "function"
    },
    {
      "inputs": [
        {
          "internalType": "address",
          "name": "newOwner",
          "type": "address"
        }
      ],
      "name": "transferOwnership",
      "outputs": [],
      "stateMutability": "nonpayable",
      "type": "function"
    },
    {
      "inputs": [
        {
          "internalType": "bytes32",
          "name": "_credentialHash",
          "type": "bytes32"
        },
        {
          "internalType": "string",
          "name": "_ipfsHash",
          "type": "string"
        },
        {
          "internalType": "address",
          "name": "_candidate",
          "type": "address"
        },
        {
          "internalType": "string",
          "name": "_credentialType",
          "type": "string"
        },
        {
          "internalType": "string",
          "name": "_institutionName",
          "type": "string"
        }
      ],
      "name": "issueCredential",
      "outputs": [
        {
          "internalType": "uint256",
          "name": "",
          "type": "uint256"
        }
      ],
      "stateMutability": "nonpayable",
      "type": "function"
    },
    {
      "inputs": [
        {
          "internalType": "uint256",
          "name": "_credentialId",
          "type": "uint256"
        }
      ],
      "name": "verifyCredential",
      "outputs": [
        {
          "internalType": "bool",
          "name": "",
          "type": "bool"
        }
      ],
      "stateMutability": "nonpayable",
      "type": "function"
    },
    {
      "inputs": [
        {
          "internalType": "uint256",
          "name": "_credentialId",
          "type": "uint256"
        }
      ],
      "name": "getCredential",
      "outputs": [
        {
          "components": [
            {
              "internalType": "uint256",
              "name": "id",
              "type": "uint256"
            },
            {
              "internalType": "bytes32",
              "name": "credentialHash",
              "type": "bytes32"
            },
            {
              "internalType": "string",
              "name": "ipfsHash",
              "type": "string"
            },
            {
              "internalType": "address",
              "name": "candidate",
              "type": "address"
            },
            {
              "internalType": "address",
              "name": "issuer",
              "type": "address"
            },
            {
              "internalType": "uint256",
              "name": "timestamp",
              "type": "uint256"
            },
            {
              "internalType": "bool",
              "name": "isVerified",
              "type": "bool"
            },
            {
              "internalType": "string",
              "name": "credentialType",
              "type": "string"
            },
            {
              "internalType": "string",
              "name": "institutionName",
              "type": "string"
            }
          ],
          "internalType": "struct CredentialVerifier.Credential",
          "name": "",
          "type": "tuple"
        }
      ],
      "stateMutability": "view",
      "type": "function",
      "constant": true
    },
    {
      "inputs": [
        {
          "internalType": "address",
          "name": "_candidate",
          "type": "address"
        }
      ],
      "name": "getCandidateCredentials",
      "outputs": [
        {
          "internalType": "uint256[]",
          "name": "",
          "type": "uint256[]"
        }
      ],
      "stateMutability": "view",
      "type": "function",
      "constant": true
    },
    {
      "inputs": [
        {
          "internalType": "bytes32",
          "name": "_credentialHash",
          "type": "bytes32"
        }
      ],
      "name": "verifyCredentialByHash",
      "outputs": [
        {
          "internalType": "bool",
          "name": "exists",
          "type": "bool"
        },
        {
          "internalType": "bool",
          "name": "isVerified",
          "type": "bool"
        },
        {
          "internalType": "address",
          "name": "issuer",
          "type": "address"
        }
      ],
      "stateMutability": "view",
      "type": "function",
      "constant": true
    },
    {
      "inputs": [
        {
          "internalType": "address",
          "name": "_issuer",
          "type": "address"
        },
        {
          "internalType": "string",
          "name": "_name",
          "type": "string"
        },
        {
          "internalType": "string",
          "name": "_website",
          "type": "string"
        }
      ],
      "name": "authorizeIssuer",
      "outputs": [],
      "stateMutability": "nonpayable",
      "type": "function"
    },
    {
      "inputs": [
        {
          "internalType": "address",
          "name": "_issuer",
          "type": "address"
        }
      ],
      "name": "revokeIssuer",
      "outputs": [],
      "stateMutability": "nonpayable",
      "type": "function"
    },
    {
      "inputs": [],
      "name": "getTotalCredentials",
      "outputs": [
        {
          "internalType": "uint256",
          "name": "",
          "type": "uint256"
        }
      ],
      "stateMutability": "view",
      "type": "function",
      "constant": true
    },
    {
      "inputs": [
        {
          "internalType": "address",
          "name": "_issuer",
          "type": "address"
        }
      ],
      "name": "getIssuer",
      "outputs": [
        {
          "components": [
            {
              "internalType": "string",
              "name": "name",
              "type": "string"
            },
            {
              "internalType": "string",
              "name": "website",
              "type": "string"
            },
            {
              "internalType": "bool",
              "name": "isAuthorized",
              "type": "bool"
            },
            {
              "internalType": "uint256",
              "name": "registrationDate",
              "type": "uint256"
            }
          ],
          "internalType": "struct CredentialVerifier.Issuer",
          "name": "",
          "type": "tuple"
        }
      ],
      "stateMutability": "view",
      "type": "function",
      "constant": true
    },
    {
      "inputs": [
        {
          "internalType": "address",
          "name": "_issuer",
          "type": "address"
        }
      ],
      "name": "isAuthorizedIssuer",
      "outputs": [
        {
          "internalType": "bool",
          "name": "",
          "type": "bool"
        }
      ],
      "stateMutability": "view",
      "type": "function",
      "constant": true
    }
  ],
  "bytecode": "0x608060405234801562000010575f80fd5b50335f73ffffffffffffffffffffffffffffffffffffffff168173ffffffffffffffffffffffffffffffffffffffff160362000085575f6040517f1e4fbdf70000000000000000000000000000000000000000000000000000000081526004016200007c919062000322565b60405180910390fd5b62000096816200021e60201b60201c565b50600160065f3373ffffffffffffffffffffffffffffffffffffffff1673ffffffffffffffffffffffffffffffffffffffff1681526020019081526020015f205f6101000a81548160ff02191690831515021790555060405180608001604052806040518060400160405280601481526020017f414920526573756d654d617463682041646d696e00000000000000000000000081525081526020016040518060400160405280601981526020017f68747470733a2f2f6169726573756d656d617463682e636f6d0000000000000081525081526020016001151581526020014281525060055f3373ffffffffffffffffffffffffffffffffffffffff1673ffffffffffffffffffffffffffffffffffffffff1681526020019081526020015f205f820151815f019081620001cc9190620005a1565b506020820151816001019081620001e49190620005a1565b506040820151816002015f6101000a81548160ff021916908315150217905550606082015181600301559050505f60018190555062000685565b5f805f9054906101000a900473ffffffffffffffffffffffffffffffffffffffff169050815f806101000a81548173ffffffffffffffffffffffffffffffffffffffff021916908373ffffffffffffffffffffffffffffffffffffffff1602179055508173ffffffffffffffffffffffffffffffffffffffff168173ffffffffffffffffffffffffffffffffffffffff167f8be0079c531659141344cd1fd0a4f28419497f9722a3daafe3b4186f6b6457e060405160405180910390a35050565b5f73ffffffffffffffffffffffffffffffffffffffff82169050919050565b5f6200030a82620002df565b9050919050565b6200031c81620002fe565b82525050565b5f602082019050620003375f83018462000311565b92915050565b5f81519050919050565b7f4e487b71000000000000000000000000000000000000000000000000000000005f52604160045260245ffd5b7f4e487b71000000000000000000000000000000000000000000000000000000005f52602260045260245ffd5b5f6002820490506001821680620003b957607f821691505b602082108103620003cf57620003ce62000374565b5b50919050565b5f819050815f5260205f209050919050565b5f6020601f8301049050919050565b5f82821b905092915050565b5f60088302620004337fffffffffffffffffffffffffffffffffffffffffffffffffffffffffffffffff82620003f6565b6200043f8683620003f6565b95508019841693508086168417925050509392505050565b5f819050919050565b5f819050919050565b5f62000489620004836200047d8462000457565b62000460565b62000457565b9050919050565b5f819050919050565b620004a48362000469565b620004bc620004b38262000490565b84845462000402565b825550505050565b5f90565b620004d2620004c4565b620004df81848462000499565b505050565b5b818110156200050657620004fa5f82620004c8565b600181019050620004e5565b5050565b601f82111562000555576200051f81620003d5565b6200052a84620003e7565b810160208510156200053a578190505b620005526200054985620003e7565b830182620004e4565b50505b505050565b5f82821c905092915050565b5f620005775f19846008026200055a565b1980831691505092915050565b5f62000591838362000566565b9150826002028217905092915050565b620005ac826200033d565b67ffffffffffffffff811115620005c857620005c762000347565b5b620005d48254620003a1565b620005e18282856200050a565b5f60209050601f83116001811462000617575f841562000602578287015190505b6200060e858262000584565b8655506200067d565b601f1984166200062786620003d5565b5f5b82811015620006505784890151825560018201915060208501945060208101905062000629565b868310156200067057848901516200066c601f89168262000566565b8355505b6001600288020188555050505b505050505050565b61306480620006935f395ff3fe608060405234801561000f575f80fd5b5060043610610113575f3560e01c8063c2fbf569116100a0578063f2a91b1c1161006f578063f2a91b1c14610322578063f2fde38b14610352578063f731fa0f1461036e578063f7c99eea1461039e578063fef03da3146103ce57610113565b8063c2fbf56914610280578063ce1ac227146102b0578063e0574e3f146102cc578063f1470a351461030457610113565b806331ba1966116100e757806331ba1966146101c557806338a7543e146101f5578063715018a6146102285780638da5cb5b146102325780638dd18d2d1461025057610113565b80626296791461011757806314078d42146101335780631c8c7634146101635780631d1260a614610195575b5f80fd5b610131600480360381019061012c9190611e8c565b6103fe565b005b61014d60048036038101906101489190612026565b6105f5565b60405161015a9190612109565b60405180910390f35b61017d60048036038101906101789190612122565b610b0c565b60405161018c93929190612176565b60405180910390f35b6101af60048036038101906101aa9190612122565b610e07565b6040516101bc9190612109565b60405180910390f35b6101df60048036038101906101da9190611e8c565b610e1c565b6040516101ec91906121ab565b60405180910390f35b61020f600480360381019061020a9190611e8c565b610e6e565b60405161021f949392919061223e565b60405180910390f35b610230610fb2565b005b61023a610fc5565b604051610247919061228f565b60405180910390f35b61026a600480360381019061026591906122d2565b610fec565b6040516102779190612451565b60405180910390f35b61029a60048036038101906102959190611e8c565b6112fb565b6040516102a79190612519565b60405180910390f35b6102ca60048036038101906102c59190612539565b61138e565b005b6102e660048036038101906102e191906122d2565b6115a6565b6040516102fb999897969594939291906125d0565b60405180910390f35b61030c6117cc565b6040516103199190612109565b60405180910390f35b61033c600480360381019061033791906122d2565b6117d5565b60405161034991906121ab565b60405180910390f35b61036c60048036038101906103679190611e8c565b6119cd565b005b61038860048036038101906103839190611e8c565b611a51565b60405161039591906121ab565b60405180910390f35b6103b860048036038101906103b39190612670565b611a6e565b6040516103c59190612109565b60405180910390f35b6103e860048036038101906103e39190611e8c565b611a99565b6040516103f59190612715565b60405180910390f35b610406611c33565b60065f8273ffffffffffffffffffffffffffffffffffffffff1673ffffffffffffffffffffffffffffffffffffffff1681526020019081526020015f205f9054906101000a900460ff1661048f576040517f08c379a00000000000000000000000000000000000000000000000000000000081526004016104869061277f565b60405180910390fd5b610497610fc5565b73ffffffffffffffffffffffffffffffffffffffff168173ffffffffffffffffffffffffffffffffffffffff1603610504576040517f08c379a00000000000000000000000000000000000000000000000000000000081526004016104fb906127e7565b60405180910390fd5b5f60065f8373ffffffffffffffffffffffffffffffffffffffff1673ffffffffffffffffffffffffffffffffffffffff1681526020019081526020015f205f6101000a81548160ff0219169083151502179055505f60055f8373ffffffffffffffffffffffffffffffffffffffff1673ffffffffffffffffffffffffffffffffffffffff1681526020019081526020015f206002015f6101000a81548160ff0219169083151502179055508073ffffffffffffffffffffffffffffffffffffffff167f95a4c2ae425bb769549aa1a911911ff57c17ae811ae8c8962d0b9746fcb1539760405160405180910390a250565b5f60065f3373ffffffffffffffffffffffffffffffffffffffff1673ffffffffffffffffffffffffffffffffffffffff1681526020019081526020015f205f9054906101000a900460ff1661067f576040517f08c379a00000000000000000000000000000000000000000000000000000000081526004016106769061284f565b60405180910390fd5b60075f9054906101000a900460ff16156106ce576040517f08c379a00000000000000000000000000000000000000000000000000000000081526004016106c5906128b7565b60405180910390fd5b600160075f6101000a81548160ff0219169083151502179055505f73ffffffffffffffffffffffffffffffffffffffff168473ffffffffffffffffffffffffffffffffffffffff1603610756576040517f08c379a000000000000000000000000000000000000000000000000000000000815260040161074d9061291f565b60405180910390fd5b5f801b860361079a576040517f08c379a000000000000000000000000000000000000000000000000000000000815260040161079190612987565b60405180910390fd5b5f8551116107dd576040517f08c379a00000000000000000000000000000000000000000000000000000000081526004016107d4906129ef565b60405180910390fd5b5f835111610820576040517f08c379a000000000000000000000000000000000000000000000000000000000815260040161081790612a57565b60405180910390fd5b5f60035f8881526020019081526020015f205414610873576040517f08c379a000000000000000000000000000000000000000000000000000000000815260040161086a90612abf565b60405180910390fd5b60015f81548092919061088590612b0a565b91905055505f60015490506040518061012001604052808281526020018881526020018781526020018673ffffffffffffffffffffffffffffffffffffffff1681526020013373ffffffffffffffffffffffffffffffffffffffff1681526020014281526020016001151581526020018581526020018481525060025f8381526020019081526020015f205f820151815f01556020820151816001015560408201518160020190816109379190612d4b565b506060820151816003015f6101000a81548173ffffffffffffffffffffffffffffffffffffffff021916908373ffffffffffffffffffffffffffffffffffffffff1602179055506080820151816004015f6101000a81548173ffffffffffffffffffffffffffffffffffffffff021916908373ffffffffffffffffffffffffffffffffffffffff16021790555060a0820151816005015560c0820151816006015f6101000a81548160ff02191690831515021790555060e0820151816007019081610a029190612d4b565b50610100820151816008019081610a199190612d4b565b509050508060035f8981526020019081526020015f208190555060045f8673ffffffffffffffffffffffffffffffffffffffff1673ffffffffffffffffffffffffffffffffffffffff1681526020019081526020015f2081908060018154018082558091505060019003905f5260205f20015f90919091909150558473ffffffffffffffffffffffffffffffffffffffff1687827ff1d386ad3bdefbda36182b0a70ebd48c17d5f2a4b87df645edca8714a5a3562b3388604051610ade929190612e1a565b60405180910390a4809150505f60075f6101000a81548160ff02191690831515021790555095945050505050565b5f805f8060035f8681526020019081526020015f205490505f8103610b3a575f805f93509350935050610e00565b5f60025f8381526020019081526020015f20604051806101200160405290815f820154815260200160018201548152602001600282018054610b7b90612b7e565b80601f0160208091040260200160405190810160405280929190818152602001828054610ba790612b7e565b8015610bf25780601f10610bc957610100808354040283529160200191610bf2565b820191905f5260205f20905b815481529060010190602001808311610bd557829003601f168201915b50505050508152602001600382015f9054906101000a900473ffffffffffffffffffffffffffffffffffffffff1673ffffffffffffffffffffffffffffffffffffffff1673ffffffffffffffffffffffffffffffffffffffff168152602001600482015f9054906101000a900473ffffffffffffffffffffffffffffffffffffffff1673ffffffffffffffffffffffffffffffffffffffff1673ffffffffffffffffffffffffffffffffffffffff16815260200160058201548152602001600682015f9054906101000a900460ff16151515158152602001600782018054610cd990612b7e565b80601f0160208091040260200160405190810160405280929190818152602001828054610d0590612b7e565b8015610d505780601f10610d2757610100808354040283529160200191610d50565b820191905f5260205f20905b815481529060010190602001808311610d3357829003601f168201915b50505050508152602001600882018054610d6990612b7e565b80601f0160208091040260200160405190810160405280929190818152602001828054610d9590612b7e565b8015610de05780601f10610db757610100808354040283529160200191610de0565b820191905f5260205f20905b815481529060010190602001808311610dc357829003601f168201915b505050505081525050905060018160c00151826080015194509450945050505b9193909250565b6003602052805f5260405f205f915090505481565b5f60065f8373ffffffffffffffffffffffffffffffffffffffff1673ffffffffffffffffffffffffffffffffffffffff1681526020019081526020015f205f9054906101000a900460ff169050919050565b6005602052805f5260405f205f91509050805f018054610e8d90612b7e565b80601f0160208091040260200160405190810160405280929190818152602001828054610eb990612b7e565b8015610f045780601f10610edb57610100808354040283529160200191610f04565b820191905f5260205f20905b815481529060010190602001808311610ee757829003601f168201915b505050505090806001018054610f1990612b7e565b80601f0160208091040260200160405190810160405280929190818152602001828054610f4590612b7e565b8015610f905780601f10610f6757610100808354040283529160200191610f90565b820191905f5260205f20905b815481529060010190602001808311610f7357829003601f168201915b505050505090806002015f9054906101000a900460ff16908060030154905084565b610fba611c33565b610fc35f611cba565b565b5f805f9054906101000a900473ffffffffffffffffffffffffffffffffffffffff16905090565b610ff4611d82565b81600154811115801561100657505f81115b611045576040517f08c379a000000000000000000000000000000000000000000000000000000000815260040161103c90612e92565b60405180910390fd5b60025f8481526020019081526020015f20604051806101200160405290815f82015481526020016001820154815260200160028201805461108590612b7e565b80601f01602080910402602001604051908101604052809291908181526020018280546110b190612b7e565b80156110fc5780601f106110d3576101008083540402835291602001916110fc565b820191905f5260205f20905b8154815290600101906020018083116110df57829003601f168201915b50505050508152602001600382015f9054906101000a900473ffffffffffffffffffffffffffffffffffffffff1673ffffffffffffffffffffffffffffffffffffffff1673ffffffffffffffffffffffffffffffffffffffff168152602001600482015f9054906101000a900473ffffffffffffffffffffffffffffffffffffffff1673ffffffffffffffffffffffffffffffffffffffff1673ffffffffffffffffffffffffffffffffffffffff16815260200160058201548152602001600682015f9054906101000a900460ff161515151581526020016007820180546111e390612b7e565b80601f016020809104026020016040519081016040528092919081815260200182805461120f90612b7e565b801561125a5780601f106112315761010080835404028352916020019161125a565b820191905f5260205f20905b81548152906001019060200180831161123d57829003601f168201915b5050505050815260200160088201805461127390612b7e565b80601f016020809104026020016040519081016040528092919081815260200182805461129f90612b7e565b80156112ea5780601f106112c1576101008083540402835291602001916112ea565b820191905f5260205f20905b8154815290600101906020018083116112cd57829003601f168201915b505050505081525050915050919050565b606060045f8373ffffffffffffffffffffffffffffffffffffffff1673ffffffffffffffffffffffffffffffffffffffff1681526020019081526020015f2080548060200260200160405190810160405280929190818152602001828054801561138257602002820191905f5260205f20905b81548152602001906001019080831161136e575b50505050509050919050565b611396611c33565b5f73ffffffffffffffffffffffffffffffffffffffff168373ffffffffffffffffffffffffffffffffffffffff1603611404576040517f08c379a00000000000000000000000000000000000000000000000000000000081526004016113fb90612efa565b60405180910390fd5b5f825111611447576040517f08c379a000000000000000000000000000000000000000000000000000000000815260040161143e90612f62565b60405180910390fd5b600160065f8573ffffffffffffffffffffffffffffffffffffffff1673ffffffffffffffffffffffffffffffffffffffff1681526020019081526020015f205f6101000a81548160ff02191690831515021790555060405180608001604052808381526020018281526020016001151581526020014281525060055f8573ffffffffffffffffffffffffffffffffffffffff1673ffffffffffffffffffffffffffffffffffffffff1681526020019081526020015f205f820151815f0190816115109190612d4b565b5060208201518160010190816115269190612d4b565b506040820151816002015f6101000a81548160ff021916908315150217905550606082015181600301559050508273ffffffffffffffffffffffffffffffffffffffff167f4a1726c837046486d7e0af20814f9e585c72cfaa1c46e87414677bc7baab9be2836040516115999190612f80565b60405180910390a2505050565b6002602052805f5260405f205f91509050805f0154908060010154908060020180546115d190612b7e565b80601f01602080910402602001604051908101604052809291908181526020018280546115fd90612b7e565b80156116485780601f1061161f57610100808354040283529160200191611648565b820191905f5260205f20905b81548152906001019060200180831161162b57829003601f168201915b505050505090806003015f9054906101000a900473ffffffffffffffffffffffffffffffffffffffff1690806004015f9054906101000a900473ffffffffffffffffffffffffffffffffffffffff1690806005015490806006015f9054906101000a900460ff16908060070180546116bf90612b7e565b80601f01602080910402602001604051908101604052809291908181526020018280546116eb90612b7e565b80156117365780601f1061170d57610100808354040283529160200191611736565b820191905f5260205f20905b81548152906001019060200180831161171957829003601f168201915b50505050509080600801805461174b90612b7e565b80601f016020809104026020016040519081016040528092919081815260200182805461177790612b7e565b80156117c25780601f10611799576101008083540402835291602001916117c2565b820191905f5260205f20905b8154815290600101906020018083116117a557829003601f168201915b5050505050905089565b5f600154905090565b5f8160015481111580156117e857505f81115b611827576040517f08c379a000000000000000000000000000000000000000000000000000000000815260040161181e90612e92565b60405180910390fd5b5f60025f8581526020019081526020015f209050806004015f9054906101000a900473ffffffffffffffffffffffffffffffffffffffff1673ffffffffffffffffffffffffffffffffffffffff163373ffffffffffffffffffffffffffffffffffffffff1614806118e65750806003015f9054906101000a900473ffffffffffffffffffffffffffffffffffffffff1673ffffffffffffffffffffffffffffffffffffffff163373ffffffffffffffffffffffffffffffffffffffff16145b8061192357506118f4610fc5565b73ffffffffffffffffffffffffffffffffffffffff163373ffffffffffffffffffffffffffffffffffffffff16145b611962576040517f08c379a000000000000000000000000000000000000000000000000000000000815260040161195990613010565b60405180910390fd5b6001816006015f6101000a81548160ff0219169083151502179055503373ffffffffffffffffffffffffffffffffffffffff16847fc3c860bc3d914100fbce06d39b8b5198e8df7db490af5c5ea04daf26d2728be660405160405180910390a3600192505050919050565b6119d5611c33565b5f73ffffffffffffffffffffffffffffffffffffffff168173ffffffffffffffffffffffffffffffffffffffff1603611a45575f6040517f1e4fbdf7000000000000000000000000000000000000000000000000000000008152600401611a3c919061228f565b60405180910390fd5b611a4e81611cba565b50565b6006602052805f5260405f205f915054906101000a900460ff1681565b6004602052815f5260405f208181548110611a87575f80fd5b905f5260205f20015f91509150505481565b611aa1611df9565b60055f8373ffffffffffffffffffffffffffffffffffffffff1673ffffffffffffffffffffffffffffffffffffffff1681526020019081526020015f206040518060800160405290815f82018054611af890612b7e565b80601f0160208091040260200160405190810160405280929190818152602001828054611b2490612b7e565b8015611b6f5780601f10611b4657610100808354040283529160200191611b6f565b820191905f5260205f20905b815481529060010190602001808311611b5257829003601f168201915b50505050508152602001600182018054611b8890612b7e565b80601f0160208091040260200160405190810160405280929190818152602001828054611bb490612b7e565b8015611bff5780601f10611bd657610100808354040283529160200191611bff565b820191905f5260205f20905b815481529060010190602001808311611be257829003601f168201915b50505050508152602001600282015f9054906101000a900460ff161515151581526020016003820154815250509050919050565b611c3b611d7b565b73ffffffffffffffffffffffffffffffffffffffff16611c59610fc5565b73ffffffffffffffffffffffffffffffffffffffff1614611cb857611c7c611d7b565b6040517f118cdaa7000000000000000000000000000000000000000000000000000000008152600401611caf919061228f565b60405180910390fd5b565b5f805f9054906101000a900473ffffffffffffffffffffffffffffffffffffffff169050815f806101000a81548173ffffffffffffffffffffffffffffffffffffffff021916908373ffffffffffffffffffffffffffffffffffffffff1602179055508173ffffffffffffffffffffffffffffffffffffffff168173ffffffffffffffffffffffffffffffffffffffff167f8be0079c531659141344cd1fd0a4f28419497f9722a3daafe3b4186f6b6457e060405160405180910390a35050565b5f33905090565b6040518061012001604052805f81526020015f8019168152602001606081526020015f73ffffffffffffffffffffffffffffffffffffffff1681526020015f73ffffffffffffffffffffffffffffffffffffffff1681526020015f81526020015f1515815260200160608152602001606081525090565b604051806080016040528060608152602001606081526020015f151581526020015f81525090565b5f604051905090565b5f80fd5b5f80fd5b5f73ffffffffffffffffffffffffffffffffffffffff82169050919050565b5f611e5b82611e32565b9050919050565b611e6b81611e51565b8114611e75575f80fd5b50565b5f81359050611e8681611e62565b92915050565b5f60208284031215611ea157611ea0611e2a565b5b5f611eae84828501611e78565b91505092915050565b5f819050919050565b611ec981611eb7565b8114611ed3575f80fd5b50565b5f81359050611ee481611ec0565b92915050565b5f80fd5b5f80fd5b5f601f19601f8301169050919050565b7f4e487b71000000000000000000000000000000000000000000000000000000005f52604160045260245ffd5b611f3882611ef2565b810181811067ffffffffffffffff82111715611f5757611f56611f02565b5b80604052505050565b5f611f69611e21565b9050611f758282611f2f565b919050565b5f67ffffffffffffffff821115611f9457611f93611f02565b5b611f9d82611ef2565b9050602081019050919050565b828183375f83830152505050565b5f611fca611fc584611f7a565b611f60565b905082815260208101848484011115611fe657611fe5611eee565b5b611ff1848285611faa565b509392505050565b5f82601f83011261200d5761200c611eea565b5b813561201d848260208601611fb8565b91505092915050565b5f805f805f60a0868803121561203f5761203e611e2a565b5b5f61204c88828901611ed6565b955050602086013567ffffffffffffffff81111561206d5761206c611e2e565b5b61207988828901611ff9565b945050604061208a88828901611e78565b935050606086013567ffffffffffffffff8111156120ab576120aa611e2e565b5b6120b788828901611ff9565b925050608086013567ffffffffffffffff8111156120d8576120d7611e2e565b5b6120e488828901611ff9565b9150509295509295909350565b5f819050919050565b612103816120f1565b82525050565b5f60208201905061211c5f8301846120fa565b92915050565b5f6020828403121561213757612136611e2a565b5b5f61214484828501611ed6565b91505092915050565b5f8115159050919050565b6121618161214d565b82525050565b61217081611e51565b82525050565b5f6060820190506121895f830186612158565b6121966020830185612158565b6121a36040830184612167565b949350505050565b5f6020820190506121be5f830184612158565b92915050565b5f81519050919050565b5f82825260208201905092915050565b5f5b838110156121fb5780820151818401526020810190506121e0565b5f8484015250505050565b5f612210826121c4565b61221a81856121ce565b935061222a8185602086016121de565b61223381611ef2565b840191505092915050565b5f6080820190508181035f8301526122568187612206565b9050818103602083015261226a8186612206565b90506122796040830185612158565b61228660608301846120fa565b95945050505050565b5f6020820190506122a25f830184612167565b92915050565b6122b1816120f1565b81146122bb575f80fd5b50565b5f813590506122cc816122a8565b92915050565b5f602082840312156122e7576122e6611e2a565b5b5f6122f4848285016122be565b91505092915050565b612306816120f1565b82525050565b61231581611eb7565b82525050565b5f82825260208201905092915050565b5f612335826121c4565b61233f818561231b565b935061234f8185602086016121de565b61235881611ef2565b840191505092915050565b61236c81611e51565b82525050565b61237b8161214d565b82525050565b5f61012083015f8301516123975f8601826122fd565b5060208301516123aa602086018261230c565b50604083015184820360408601526123c2828261232b565b91505060608301516123d76060860182612363565b5060808301516123ea6080860182612363565b5060a08301516123fd60a08601826122fd565b5060c083015161241060c0860182612372565b5060e083015184820360e0860152612428828261232b565b915050610100830151848203610100860152612444828261232b565b9150508091505092915050565b5f6020820190508181035f8301526124698184612381565b905092915050565b5f81519050919050565b5f82825260208201905092915050565b5f819050602082019050919050565b5f6124a583836122fd565b60208301905092915050565b5f602082019050919050565b5f6124c782612471565b6124d1818561247b565b93506124dc8361248b565b805f5b8381101561250c5781516124f3888261249a565b97506124fe836124b1565b9250506001810190506124df565b5085935050505092915050565b5f6020820190508181035f83015261253181846124bd565b905092915050565b5f805f606084860312156125505761254f611e2a565b5b5f61255d86828701611e78565b935050602084013567ffffffffffffffff81111561257e5761257d611e2e565b5b61258a86828701611ff9565b925050604084013567ffffffffffffffff8111156125ab576125aa611e2e565b5b6125b786828701611ff9565b9150509250925092565b6125ca81611eb7565b82525050565b5f610120820190506125e45f83018c6120fa565b6125f1602083018b6125c1565b8181036040830152612603818a612206565b90506126126060830189612167565b61261f6080830188612167565b61262c60a08301876120fa565b61263960c0830186612158565b81810360e083015261264b8185612206565b90508181036101008301526126608184612206565b90509a9950505050505050505050565b5f806040838503121561268657612685611e2a565b5b5f61269385828601611e78565b92505060206126a4858286016122be565b9150509250929050565b5f608083015f8301518482035f8601526126c8828261232b565b915050602083015184820360208601526126e2828261232b565b91505060408301516126f76040860182612372565b50606083015161270a60608601826122fd565b508091505092915050565b5f6020820190508181035f83015261272d81846126ae565b905092915050565b7f497373756572206e6f7420617574686f72697a656400000000000000000000005f82015250565b5f6127696015836121ce565b915061277482612735565b602082019050919050565b5f6020820190508181035f8301526127968161275d565b9050919050565b7f43616e6e6f74207265766f6b65206f776e6572000000000000000000000000005f82015250565b5f6127d16013836121ce565b91506127dc8261279d565b602082019050919050565b5f6020820190508181035f8301526127fe816127c5565b9050919050565b7f4e6f7420616e20617574686f72697a65642069737375657200000000000000005f82015250565b5f6128396018836121ce565b915061284482612805565b602082019050919050565b5f6020820190508181035f8301526128668161282d565b9050919050565b7f5265656e7472616e637947756172643a207265656e7472616e742063616c6c005f82015250565b5f6128a1601f836121ce565b91506128ac8261286d565b602082019050919050565b5f6020820190508181035f8301526128ce81612895565b9050919050565b7f496e76616c69642063616e6469646174652061646472657373000000000000005f82015250565b5f6129096019836121ce565b9150612914826128d5565b602082019050919050565b5f6020820190508181035f830152612936816128fd565b9050919050565b7f496e76616c69642063726564656e7469616c20686173680000000000000000005f82015250565b5f6129716017836121ce565b915061297c8261293d565b602082019050919050565b5f6020820190508181035f83015261299e81612965565b9050919050565b7f4950465320686173682063616e6e6f7420626520656d707479000000000000005f82015250565b5f6129d96019836121ce565b91506129e4826129a5565b602082019050919050565b5f6020820190508181035f830152612a06816129cd565b9050919050565b7f43726564656e7469616c20747970652063616e6e6f7420626520656d707479005f82015250565b5f612a41601f836121ce565b9150612a4c82612a0d565b602082019050919050565b5f6020820190508181035f830152612a6e81612a35565b9050919050565b7f43726564656e7469616c20616c726561647920657869737473000000000000005f82015250565b5f612aa96019836121ce565b9150612ab482612a75565b602082019050919050565b5f6020820190508181035f830152612ad681612a9d565b9050919050565b7f4e487b71000000000000000000000000000000000000000000000000000000005f52601160045260245ffd5b5f612b14826120f1565b91507fffffffffffffffffffffffffffffffffffffffffffffffffffffffffffffffff8203612b4657612b45612add565b5b600182019050919050565b7f4e487b71000000000000000000000000000000000000000000000000000000005f52602260045260245ffd5b5f6002820490506001821680612b9557607f821691505b602082108103612ba857612ba7612b51565b5b50919050565b5f819050815f5260205f209050919050565b5f6020601f8301049050919050565b5f82821b905092915050565b5f60088302612c0a7fffffffffffffffffffffffffffffffffffffffffffffffffffffffffffffffff82612bcf565b612c148683612bcf565b95508019841693508086168417925050509392505050565b5f819050919050565b5f612c4f612c4a612c45846120f1565b612c2c565b6120f1565b9050919050565b5f819050919050565b612c6883612c35565b612c7c612c7482612c56565b848454612bdb565b825550505050565b5f90565b612c90612c84565b612c9b818484612c5f565b505050565b5b81811015612cbe57612cb35f82612c88565b600181019050612ca1565b5050565b601f821115612d0357612cd481612bae565b612cdd84612bc0565b81016020851015612cec578190505b612d00612cf885612bc0565b830182612ca0565b50505b505050565b5f82821c905092915050565b5f612d235f1984600802612d08565b1980831691505092915050565b5f612d3b8383612d14565b9150826002028217905092915050565b612d54826121c4565b67ffffffffffffffff811115612d6d57612d6c611f02565b5b612d778254612b7e565b612d82828285612cc2565b5f60209050601f831160018114612db3575f8415612da1578287015190505b612dab8582612d30565b865550612e12565b601f198416612dc186612bae565b5f5b82811015612de857848901518255600182019150602085019450602081019050612dc3565b86831015612e055784890151612e01601f891682612d14565b8355505b6001600288020188555050505b505050505050565b5f604082019050612e2d5f830185612167565b8181036020830152612e3f8184612206565b90509392505050565b7f43726564656e7469616c20646f6573206e6f74206578697374000000000000005f82015250565b5f612e7c6019836121ce565b9150612e8782612e48565b602082019050919050565b5f6020820190508181035f830152612ea981612e70565b9050919050565b7f496e76616c6964206973737565722061646472657373000000000000000000005f82015250565b5f612ee46016836121ce565b9150612eef82612eb0565b602082019050919050565b5f6020820190508181035f830152612f1181612ed8565b9050919050565b7f4e616d652063616e6e6f7420626520656d7074790000000000000000000000005f82015250565b5f612f4c6014836121ce565b9150612f5782612f18565b602082019050919050565b5f6020820190508181035f830152612f7981612f40565b9050919050565b5f6020820190508181035f830152612f988184612206565b905092915050565b7f4e6f7420617574686f72697a656420746f2076657269667920746869732063725f8201527f6564656e7469616c000000000000000000000000000000000000000000000000602082015250565b5f612ffa6028836121ce565b915061300582612fa0565b604082019050919050565b5f6020820190508181035f83015261302781612fee565b905091905056fea264697066735822122055fafd2005b3967aeb9aafbafca285d6e0372cb968e79bac32cfed56e4d68cec64736f6c63430008150033",
  "immutableReferences": {},
  "source": "// SPDX-License-Identifier: MIT\r\npragma solidity ^0.8.0;\r\n\r\nimport \"@openzeppelin/contracts/access/Ownable.sol\";\r\n\r\n/**\r\n * @title CredentialVerifier\r\n * @dev Smart contract for verifying and storing credential hashes on blockchain\r\n * @author AI ResumeMatch Team\r\n */\r\ncontract CredentialVerifier is Ownable {\r\n    \r\n    // Counter for credential IDs\r\n    uint256 private _credentialIdCounter;\r\n    \r\n    // Struct to store credential information\r\n    struct Credential {\r\n        uint256 id;\r\n        bytes32 credentialHash;     // Hash of the credential data\r\n        string ipfsHash;            // IPFS hash for storing credential file\r\n        address candidate;          // Address of the credential owner\r\n        address issuer;             // Address of the credential issuer\r\n        uint256 timestamp;          // When the credential was issued\r\n        bool isVerified;            // Verification status\r\n        string credentialType;      // Type of credential (degree, certificate, etc.)\r\n        string institutionName;     // Name of issuing institution\r\n    }\r\n    \r\n    // Struct for issuer information\r\n    struct Issuer {\r\n        string name;\r\n        string website;\r\n        bool isAuthorized;\r\n        uint256 registrationDate;\r\n    }\r\n    \r\n    // Mapping from credential ID to credential details\r\n    mapping(uint256 => Credential) public credentials;\r\n    \r\n    // Mapping from credential hash to credential ID (prevents duplicates)\r\n    mapping(bytes32 => uint256) public hashToCredentialId;\r\n    \r\n    // Mapping from candidate address to their credential IDs\r\n    mapping(address => uint256[]) public candidateCredentials;\r\n    \r\n    // Mapping from issuer address to issuer details\r\n    mapping(address => Issuer) public issuers;\r\n    \r\n    // Mapping to track authorized issuers\r\n    mapping(address => bool) public authorizedIssuers;\r\n    \r\n    // Events\r\n    event CredentialIssued(\r\n        uint256 indexed credentialId,\r\n        bytes32 indexed credentialHash,\r\n        address indexed candidate,\r\n        address issuer,\r\n        string credentialType\r\n    );\r\n    \r\n    event CredentialVerified(\r\n        uint256 indexed credentialId,\r\n        address indexed verifier\r\n    );\r\n    \r\n    event IssuerAuthorized(\r\n        address indexed issuer,\r\n        string name\r\n    );\r\n    \r\n    event IssuerRevoked(\r\n        address indexed issuer\r\n    );\r\n    \r\n    // Modifiers\r\n    modifier onlyAuthorizedIssuer() {\r\n        require(authorizedIssuers[msg.sender], \"Not an authorized issuer\");\r\n        _;\r\n    }\r\n    \r\n    modifier credentialExists(uint256 _credentialId) {\r\n        require(_credentialId <= _credentialIdCounter && _credentialId > 0, \"Credential does not exist\");\r\n        _;\r\n    }\r\n    \r\n    // Reentrancy protection\r\n    bool private _locked;\r\n    modifier nonReentrant() {\r\n        require(!_locked, \"ReentrancyGuard: reentrant call\");\r\n        _locked = true;\r\n        _;\r\n        _locked = false;\r\n    }\r\n    \r\n    constructor() Ownable(msg.sender) {\r\n        // Owner is automatically an authorized issuer\r\n        authorizedIssuers[msg.sender] = true;\r\n        issuers[msg.sender] = Issuer({\r\n            name: \"AI ResumeMatch Admin\",\r\n            website: \"https://airesumematch.com\",\r\n            isAuthorized: true,\r\n            registrationDate: block.timestamp\r\n        });\r\n        _credentialIdCounter = 0;\r\n    }\r\n    \r\n    /**\r\n     * @dev Issue a new credential\r\n     * @param _credentialHash Hash of the credential data\r\n     * @param _ipfsHash IPFS hash of the credential file\r\n     * @param _candidate Address of the credential owner\r\n     * @param _credentialType Type of credential\r\n     * @param _institutionName Name of issuing institution\r\n     */\r\n    function issueCredential(\r\n        bytes32 _credentialHash,\r\n        string memory _ipfsHash,\r\n        address _candidate,\r\n        string memory _credentialType,\r\n        string memory _institutionName\r\n    ) external onlyAuthorizedIssuer nonReentrant returns (uint256) {\r\n        require(_candidate != address(0), \"Invalid candidate address\");\r\n        require(_credentialHash != bytes32(0), \"Invalid credential hash\");\r\n        require(bytes(_ipfsHash).length > 0, \"IPFS hash cannot be empty\");\r\n        require(bytes(_credentialType).length > 0, \"Credential type cannot be empty\");\r\n        \r\n        // Check if credential already exists\r\n        require(hashToCredentialId[_credentialHash] == 0, \"Credential already exists\");\r\n        \r\n        // Increment credential counter\r\n        _credentialIdCounter++;\r\n        uint256 newCredentialId = _credentialIdCounter;\r\n        \r\n        // Create new credential\r\n        credentials[newCredentialId] = Credential({\r\n            id: newCredentialId,\r\n            credentialHash: _credentialHash,\r\n            ipfsHash: _ipfsHash,\r\n            candidate: _candidate,\r\n            issuer: msg.sender,\r\n            timestamp: block.timestamp,\r\n            isVerified: true, // Automatically verified when issued by authorized issuer\r\n            credentialType: _credentialType,\r\n            institutionName: _institutionName\r\n        });\r\n        \r\n        // Map hash to ID\r\n        hashToCredentialId[_credentialHash] = newCredentialId;\r\n        \r\n        // Add to candidate's credential list\r\n        candidateCredentials[_candidate].push(newCredentialId);\r\n        \r\n        emit CredentialIssued(\r\n            newCredentialId,\r\n            _credentialHash,\r\n            _candidate,\r\n            msg.sender,\r\n            _credentialType\r\n        );\r\n        \r\n        return newCredentialId;\r\n    }\r\n    \r\n    /**\r\n     * @dev Verify a credential by ID\r\n     * @param _credentialId ID of the credential to verify\r\n     */\r\n    function verifyCredential(uint256 _credentialId) \r\n        external \r\n        credentialExists(_credentialId) \r\n        returns (bool) \r\n    {\r\n        Credential storage credential = credentials[_credentialId];\r\n        \r\n        // Only issuer or owner can verify\r\n        require(\r\n            msg.sender == credential.issuer || \r\n            msg.sender == credential.candidate || \r\n            msg.sender == owner(),\r\n            \"Not authorized to verify this credential\"\r\n        );\r\n        \r\n        credential.isVerified = true;\r\n        \r\n        emit CredentialVerified(_credentialId, msg.sender);\r\n        \r\n        return true;\r\n    }\r\n    \r\n    /**\r\n     * @dev Get credential details by ID\r\n     * @param _credentialId ID of the credential\r\n     */\r\n    function getCredential(uint256 _credentialId) \r\n        external \r\n        view \r\n        credentialExists(_credentialId) \r\n        returns (Credential memory) \r\n    {\r\n        return credentials[_credentialId];\r\n    }\r\n    \r\n    /**\r\n     * @dev Get all credentials for a candidate\r\n     * @param _candidate Address of the candidate\r\n     */\r\n    function getCandidateCredentials(address _candidate) \r\n        external \r\n        view \r\n        returns (uint256[] memory) \r\n    {\r\n        return candidateCredentials[_candidate];\r\n    }\r\n    \r\n    /**\r\n     * @dev Verify credential by hash\r\n     * @param _credentialHash Hash of the credential\r\n     */\r\n    function verifyCredentialByHash(bytes32 _credentialHash) \r\n        external \r\n        view \r\n        returns (bool exists, bool isVerified, address issuer) \r\n    {\r\n        uint256 credentialId = hashToCredentialId[_credentialHash];\r\n        \r\n        if (credentialId == 0) {\r\n            return (false, false, address(0));\r\n        }\r\n        \r\n        Credential memory credential = credentials[credentialId];\r\n        return (true, credential.isVerified, credential.issuer);\r\n    }\r\n    \r\n    /**\r\n     * @dev Authorize a new issuer (only owner)\r\n     * @param _issuer Address of the new issuer\r\n     * @param _name Name of the issuer\r\n     * @param _website Website of the issuer\r\n     */\r\n    function authorizeIssuer(\r\n        address _issuer,\r\n        string memory _name,\r\n        string memory _website\r\n    ) external onlyOwner {\r\n        require(_issuer != address(0), \"Invalid issuer address\");\r\n        require(bytes(_name).length > 0, \"Name cannot be empty\");\r\n        \r\n        authorizedIssuers[_issuer] = true;\r\n        issuers[_issuer] = Issuer({\r\n            name: _name,\r\n            website: _website,\r\n            isAuthorized: true,\r\n            registrationDate: block.timestamp\r\n        });\r\n        \r\n        emit IssuerAuthorized(_issuer, _name);\r\n    }\r\n    \r\n    /**\r\n     * @dev Revoke issuer authorization (only owner)\r\n     * @param _issuer Address of the issuer to revoke\r\n     */\r\n    function revokeIssuer(address _issuer) external onlyOwner {\r\n        require(authorizedIssuers[_issuer], \"Issuer not authorized\");\r\n        require(_issuer != owner(), \"Cannot revoke owner\");\r\n        \r\n        authorizedIssuers[_issuer] = false;\r\n        issuers[_issuer].isAuthorized = false;\r\n        \r\n        emit IssuerRevoked(_issuer);\r\n    }\r\n    \r\n    /**\r\n     * @dev Get total number of credentials issued\r\n     */\r\n    function getTotalCredentials() external view returns (uint256) {\r\n        return _credentialIdCounter;\r\n    }\r\n    \r\n    /**\r\n     * @dev Get issuer details\r\n     * @param _issuer Address of the issuer\r\n     */\r\n    function getIssuer(address _issuer) external view returns (Issuer memory) {\r\n        return issuers[_issuer];\r\n    }\r\n    \r\n    /**\r\n     * @dev Check if an address is an authorized issuer\r\n     * @param _issuer Address to check\r\n     */\r\n    function isAuthorizedIssuer(address _issuer) external view returns (bool) {\r\n        return authorizedIssuers[_issuer];\r\n    }\r\n}",
  "sourcePath": "C:\\Workspace\\Qriocity\\Machine Learning Projects\\Auditable AI\\blockchain\\contracts\\CredentialVerifier.sol",
  "compiler": {
    "name": "solc",
    "version": "0.8.21+commit.d9974bed.Emscripten.clang"
  },
  "schemaVersion": "3.4.16",
  "updatedAt": "2025-08-29T07:15:22.603Z",
  "networkType": "ethereum",
  "devdoc": {
    "author": "AI ResumeMatch Team",
    "details": "Smart contract for verifying and storing credential hashes on blockchain",
    "errors": {
      "OwnableInvalidOwner(address)": [
        {
          "details": "The owner is not a valid owner account. (eg. `address(0)`)"
        }
      ],
      "OwnableUnauthorizedAccount(address)": [
        {
          "details": "The caller account is not authorized to perform an operation."
        }
      ]
    },
    "kind": "dev",
    "methods": {
      "authorizeIssuer(address,string,string)": {
        "details": "Authorize a new issuer (only owner)",
        "params": {
          "_issuer": "Address of the new issuer",
          "_name": "Name of the issuer",
          "_website": "Website of the issuer"
        }
      },
      "getCandidateCredentials(address)": {
        "details": "Get all credentials for a candidate",
        "params": {
          "_candidate": "Address of the candidate"
        }
      },
      "getCredential(uint256)": {
        "details": "Get credential details by ID",
        "params": {
          "_credentialId": "ID of the credential"
        }
      },
      "getIssuer(address)": {
        "details": "Get issuer details",
        "params": {
          "_issuer": "Address of the issuer"
        }
      },
      "getTotalCredentials()": {
        "details": "Get total number of credentials issued"
      },
      "isAuthorizedIssuer(address)": {
        "details": "Check if an address is an authorized issuer",
        "params": {
          "_issuer": "Address to check"
        }
      },
      "issueCredential(bytes32,string,address,string,string)": {
        "details": "Issue a new credential",
        "params": {
          "_candidate": "Address of the credential owner",
          "_credentialHash": "Hash of the credential data",
          "_credentialType": "Type of credential",
          "_institutionName": "Name of issuing institution",
          "_ipfsHash": "IPFS hash of the credential file"
        }
      },
      "owner()": {
        "details": "Returns the address of the current owner."
      },
      "renounceOwnership()": {
        "details": "Leaves the contract without owner. It will not be possible to call `onlyOwner` functions. Can only be called by the current owner. NOTE: Renouncing ownership will leave the contract without an owner, thereby disabling any functionality that is only available to the owner."
      },
      "revokeIssuer(address)": {
        "details": "Revoke issuer authorization (only owner)",
        "params": {
          "_issuer": "Address of the issuer to revoke"
        }
      },
      "transferOwnership(address)": {
        "details": "Transfers ownership of the contract to a new account (`newOwner`). Can only be called by the current owner."
      },
      "verifyCredential(uint256)": {
        "details": "Verify a credential by ID",
        "params": {
          "_credentialId": "ID of the credential to verify"
        }
      },
      "verifyCredentialByHash(bytes32)": {
        "details": "Verify credential by hash",
        "params": {
          "_credentialHash": "Hash of the credential"
        }
      }
    },
    "title": "CredentialVerifier",
    "version": 1
  },
  "userdoc": {
    "kind": "user",
    "methods": {},
    "version": 1
  }
}