{
  "contractName": "ResumeRegistry",
  "abi": [
    {
      "inputs": [],
      "stateMutability": "nonpayable",
      "type": "constructor"
    },
    {
      "inputs": [
        {
          "internalType": "address",
          "name": "owner",
          "type": "address"
        }
      ],
      "name": "OwnableInvalidOwner",
      "type": "error"
    },
    {
      "inputs": [
        {
          "internalType": "address",
          "name": "account",
          "type": "address"
        }
      ],
      "name": "OwnableUnauthorizedAccount",
      "type": "error"
    },
    {
      "anonymous": false,
      "inputs": [
        {
          "indexed": true,
          "internalType": "uint256",
          "name": "resumeId",
          "type": "uint256"
        },
        {
          "indexed": true,
          "internalType": "address",
          "name": "candidate",
          "type": "address"
        },
        {
          "indexed": true,
          "internalType": "address",
          "name": "recruiter",
          "type": "address"
        }
      ],
      "name": "AccessGranted",
      "type": "event"
    },
    {
      "anonymous": false,
      "inputs": [
        {
          "indexed": true,
          "internalType": "uint256",
          "name": "resumeId",
          "type": "uint256"
        },
        {
          "indexed": true,
          "internalType": "address",
          "name": "candidate",
          "type": "address"
        },
        {
          "indexed": true,
          "internalType": "address",
          "name": "recruiter",
          "type": "address"
        }
      ],
      "name": "AccessRevoked",
      "type": "event"
    },
    {
      "anonymous": false,
      "inputs": [
        {
          "indexed": true,
          "internalType": "address",
          "name": "previousOwner",
          "type": "address"
        },
        {
          "indexed": true,
          "internalType": "address",
          "name": "newOwner",
          "type": "address"
        }
      ],
      "name": "OwnershipTransferred",
      "type": "event"
    },
    {
      "anonymous": false,
      "inputs": [
        {
          "indexed": true,
          "internalType": "address",
          "name": "candidate",
          "type": "address"
        },
        {
          "indexed": false,
          "internalType": "string",
          "name": "name",
          "type": "string"
        },
        {
          "indexed": false,
          "internalType": "string",
          "name": "email",
          "type": "string"
        }
      ],
      "name": "ProfileUpdated",
      "type": "event"
    },
    {
      "anonymous": false,
      "inputs": [
        {
          "indexed": true,
          "internalType": "uint256",
          "name": "resumeId",
          "type": "uint256"
        },
        {
          "indexed": true,
          "internalType": "bytes32",
          "name": "resumeHash",
          "type": "bytes32"
        },
        {
          "indexed": true,
          "internalType": "address",
          "name": "candidate",
          "type": "address"
        },
        {
          "indexed": false,
          "internalType": "string",
          "name": "ipfsHash",
          "type": "string"
        }
      ],
      "name": "ResumeRegistered",
      "type": "event"
    },
    {
      "anonymous": false,
      "inputs": [
        {
          "indexed": true,
          "internalType": "uint256",
          "name": "resumeId",
          "type": "uint256"
        },
        {
          "indexed": true,
          "internalType": "address",
          "name": "candidate",
          "type": "address"
        }
      ],
      "name": "ResumeUpdated",
      "type": "event"
    },
    {
      "inputs": [
        {
          "internalType": "address",
          "name": "",
          "type": "address"
        },
        {
          "internalType": "uint256",
          "name": "",
          "type": "uint256"
        }
      ],
      "name": "candidateResumes",
      "outputs": [
        {
          "internalType": "uint256",
          "name": "",
          "type": "uint256"
        }
      ],
      "stateMutability": "view",
      "type": "function",
      "constant": true
    },
    {
      "inputs": [
        {
          "internalType": "address",
          "name": "",
          "type": "address"
        }
      ],
      "name": "candidates",
      "outputs": [
        {
          "internalType": "string",
          "name": "name",
          "type": "string"
        },
        {
          "internalType": "string",
          "name": "email",
          "type": "string"
        },
        {
          "internalType": "bool",
          "name": "isVerified",
          "type": "bool"
        },
        {
          "internalType": "uint256",
          "name": "registrationDate",
          "type": "uint256"
        },
        {
          "internalType": "uint256",
          "name": "totalViews",
          "type": "uint256"
        }
      ],
      "stateMutability": "view",
      "type": "function",
      "constant": true
    },
    {
      "inputs": [
        {
          "internalType": "bytes32",
          "name": "",
          "type": "bytes32"
        }
      ],
      "name": "hashToResumeId",
      "outputs": [
        {
          "internalType": "uint256",
          "name": "",
          "type": "uint256"
        }
      ],
      "stateMutability": "view",
      "type": "function",
      "constant": true
    },
    {
      "inputs": [],
      "name": "owner",
      "outputs": [
        {
          "internalType": "address",
          "name": "",
          "type": "address"
        }
      ],
      "stateMutability": "view",
      "type": "function",
      "constant": true
    },
    {
      "inputs": [],
      "name": "renounceOwnership",
      "outputs": [],
      "stateMutability": "nonpayable",
      "type": "function"
    },
    {
      "inputs": [
        {
          "internalType": "address",
          "name": "",
          "type": "address"
        },
        {
          "internalType": "address",
          "name": "",
          "type": "address"
        }
      ],
      "name": "resumeAccessPermissions",
      "outputs": [
        {
          "internalType": "bool",
          "name": "",
          "type": "bool"
        }
      ],
      "stateMutability": "view",
      "type": "function",
      "constant": true
    },
    {
      "inputs": [
        {
          "internalType": "uint256",
          "name": "",
          "type": "uint256"
        }
      ],
      "name": "resumes",
      "outputs": [
        {
          "internalType": "uint256",
          "name": "id",
          "type": "uint256"
        },
        {
          "internalType": "bytes32",
          "name": "resumeHash",
          "type": "bytes32"
        },
        {
          "internalType": "string",
          "name": "ipfsHash",
          "type": "string"
        },
        {
          "internalType": "address",
          "name": "candidate",
          "type": "address"
        },
        {
          "internalType": "uint256",
          "name": "timestamp",
          "type": "uint256"
        },
        {
          "internalType": "bool",
          "name": "isActive",
          "type": "bool"
        },
        {
          "internalType": "uint256",
          "name": "experienceYears",
          "type": "uint256"
        },
        {
          "internalType": "string",
          "name": "education",
          "type": "string"
        },
        {
          "internalType": "bool",
          "name": "isPublic",
          "type": "bool"
        }
      ],
      "stateMutability": "view",
      "type": "function",
      "constant": true
    },
    {
      "inputs": [
        {
          "internalType": "address",
          "name": "newOwner",
          "type": "address"
        }
      ],
      "name": "transferOwnership",
      "outputs": [],
      "stateMutability": "nonpayable",
      "type": "function"
    },
    {
      "inputs": [
        {
          "internalType": "bytes32",
          "name": "_resumeHash",
          "type": "bytes32"
        },
        {
          "internalType": "string",
          "name": "_ipfsHash",
          "type": "string"
        },
        {
          "internalType": "string[]",
          "name": "_skills",
          "type": "string[]"
        },
        {
          "internalType": "uint256",
          "name": "_experienceYears",
          "type": "uint256"
        },
        {
          "internalType": "string",
          "name": "_education",
          "type": "string"
        },
        {
          "internalType": "bool",
          "name": "_isPublic",
          "type": "bool"
        }
      ],
      "name": "registerResume",
      "outputs": [
        {
          "internalType": "uint256",
          "name": "",
          "type": "uint256"
        }
      ],
      "stateMutability": "nonpayable",
      "type": "function"
    },
    {
      "inputs": [
        {
          "internalType": "uint256",
          "name": "_resumeId",
          "type": "uint256"
        },
        {
          "internalType": "string[]",
          "name": "_skills",
          "type": "string[]"
        },
        {
          "internalType": "uint256",
          "name": "_experienceYears",
          "type": "uint256"
        },
        {
          "internalType": "string",
          "name": "_education",
          "type": "string"
        },
        {
          "internalType": "bool",
          "name": "_isPublic",
          "type": "bool"
        }
      ],
      "name": "updateResume",
      "outputs": [],
      "stateMutability": "nonpayable",
      "type": "function"
    },
    {
      "inputs": [
        {
          "internalType": "uint256",
          "name": "_resumeId",
          "type": "uint256"
        }
      ],
      "name": "getResume",
      "outputs": [
        {
          "components": [
            {
              "internalType": "uint256",
              "name": "id",
              "type": "uint256"
            },
            {
              "internalType": "bytes32",
              "name": "resumeHash",
              "type": "bytes32"
            },
            {
              "internalType": "string",
              "name": "ipfsHash",
              "type": "string"
            },
            {
              "internalType": "address",
              "name": "candidate",
              "type": "address"
            },
            {
              "internalType": "uint256",
              "name": "timestamp",
              "type": "uint256"
            },
            {
              "internalType": "bool",
              "name": "isActive",
              "type": "bool"
            },
            {
              "internalType": "string[]",
              "name": "skills",
              "type": "string[]"
            },
            {
              "internalType": "uint256",
              "name": "experienceYears",
              "type": "uint256"
            },
            {
              "internalType": "string",
              "name": "education",
              "type": "string"
            },
            {
              "internalType": "bool",
              "name": "isPublic",
              "type": "bool"
            }
          ],
          "internalType": "struct ResumeRegistry.Resume",
          "name": "",
          "type": "tuple"
        }
      ],
      "stateMutability": "view",
      "type": "function",
      "constant": true
    },
    {
      "inputs": [
        {
          "internalType": "address",
          "name": "_candidate",
          "type": "address"
        }
      ],
      "name": "getCandidateResumes",
      "outputs": [
        {
          "internalType": "uint256[]",
          "name": "",
          "type": "uint256[]"
        }
      ],
      "stateMutability": "view",
      "type": "function",
      "constant": true
    },
    {
      "inputs": [
        {
          "internalType": "uint256",
          "name": "_resumeId",
          "type": "uint256"
        },
        {
          "internalType": "address",
          "name": "_recruiter",
          "type": "address"
        }
      ],
      "name": "grantAccess",
      "outputs": [],
      "stateMutability": "nonpayable",
      "type": "function"
    },
    {
      "inputs": [
        {
          "internalType": "uint256",
          "name": "_resumeId",
          "type": "uint256"
        },
        {
          "internalType": "address",
          "name": "_recruiter",
          "type": "address"
        }
      ],
      "name": "revokeAccess",
      "outputs": [],
      "stateMutability": "nonpayable",
      "type": "function"
    },
    {
      "inputs": [
        {
          "internalType": "string",
          "name": "_name",
          "type": "string"
        },
        {
          "internalType": "string",
          "name": "_email",
          "type": "string"
        }
      ],
      "name": "updateProfile",
      "outputs": [],
      "stateMutability": "nonpayable",
      "type": "function"
    },
    {
      "inputs": [
        {
          "internalType": "address",
          "name": "_candidate",
          "type": "address"
        }
      ],
      "name": "verifyCandidate",
      "outputs": [],
      "stateMutability": "nonpayable",
      "type": "function"
    },
    {
      "inputs": [
        {
          "internalType": "address",
          "name": "_candidate",
          "type": "address"
        }
      ],
      "name": "getCandidateProfile",
      "outputs": [
        {
          "components": [
            {
              "internalType": "string",
              "name": "name",
              "type": "string"
            },
            {
              "internalType": "string",
              "name": "email",
              "type": "string"
            },
            {
              "internalType": "bool",
              "name": "isVerified",
              "type": "bool"
            },
            {
              "internalType": "uint256",
              "name": "registrationDate",
              "type": "uint256"
            },
            {
              "internalType": "uint256[]",
              "name": "resumeIds",
              "type": "uint256[]"
            },
            {
              "internalType": "uint256",
              "name": "totalViews",
              "type": "uint256"
            }
          ],
          "internalType": "struct ResumeRegistry.CandidateProfile",
          "name": "",
          "type": "tuple"
        }
      ],
      "stateMutability": "view",
      "type": "function",
      "constant": true
    },
    {
      "inputs": [
        {
          "internalType": "address",
          "name": "_candidate",
          "type": "address"
        },
        {
          "internalType": "address",
          "name": "_recruiter",
          "type": "address"
        }
      ],
      "name": "hasResumeAccess",
      "outputs": [
        {
          "internalType": "bool",
          "name": "",
          "type": "bool"
        }
      ],
      "stateMutability": "view",
      "type": "function",
      "constant": true
    },
    {
      "inputs": [],
      "name": "getTotalResumes",
      "outputs": [
        {
          "internalType": "uint256",
          "name": "",
          "type": "uint256"
        }
      ],
      "stateMutability": "view",
      "type": "function",
      "constant": true
    },
    {
      "inputs": [
        {
          "internalType": "uint256",
          "name": "_resumeId",
          "type": "uint256"
        }
      ],
      "name": "deactivateResume",
      "outputs": [],
      "stateMutability": "nonpayable",
      "type": "function"
    },
    {
      "inputs": [
        {
          "internalType": "uint256",
          "name": "_resumeId",
          "type": "uint256"
        }
      ],
      "name": "activateResume",
      "outputs": [],
      "stateMutability": "nonpayable",
      "type": "function"
    }
  ],
  "bytecode": "0x608060405234801562000010575f80fd5b50335f73ffffffffffffffffffffffffffffffffffffffff168173ffffffffffffffffffffffffffffffffffffffff160362000085575f6040517f1e4fbdf70000000000000000000000000000000000000000000000000000000081526004016200007c9190620001a8565b60405180910390fd5b6200009681620000a460201b60201c565b505f600181905550620001c3565b5f805f9054906101000a900473ffffffffffffffffffffffffffffffffffffffff169050815f806101000a81548173ffffffffffffffffffffffffffffffffffffffff021916908373ffffffffffffffffffffffffffffffffffffffff1602179055508173ffffffffffffffffffffffffffffffffffffffff168173ffffffffffffffffffffffffffffffffffffffff167f8be0079c531659141344cd1fd0a4f28419497f9722a3daafe3b4186f6b6457e060405160405180910390a35050565b5f73ffffffffffffffffffffffffffffffffffffffff82169050919050565b5f620001908262000165565b9050919050565b620001a28162000184565b82525050565b5f602082019050620001bd5f83018462000197565b92915050565b613a9c80620001d15f395ff3fe608060405234801561000f575f80fd5b5060043610610135575f3560e01c8063a6227066116100b6578063d7334ef31161007a578063d7334ef31461035f578063d9a5ec1b14610397578063e6165b2f146103b3578063e80214b3146103e3578063ea04d18c14610413578063f2fde38b1461042f57610135565b8063a6227066146102ab578063b4e35db4146102db578063c9d3cc6a146102f7578063cd338ec814610313578063cdff87f11461034357610135565b80637664ca93116100fd5780637664ca93146101dd5780638ab66a901461020d5780638ad46b33146102415780638da5cb5b14610271578063969dda341461028f57610135565b8063098d64d81461013957806310b3e1611461016957806344277a051461018757806365dd152c146101b7578063715018a6146101d3575b5f80fd5b610153600480360381019061014e91906125b2565b61044b565b6040516101609190612887565b60405180910390f35b610171610b80565b60405161017e91906128b6565b60405180910390f35b6101a1600480360381019061019c91906128f9565b610b89565b6040516101ae91906128b6565b60405180910390f35b6101d160048036038101906101cc919061294e565b610b9e565b005b6101db610e5e565b005b6101f760048036038101906101f2919061298c565b610e71565b6040516102049190612a5f565b60405180910390f35b6102276004803603810190610222919061298c565b610f04565b604051610238959493929190612ad6565b60405180910390f35b61025b6004803603810190610256919061298c565b61104e565b6040516102689190612c35565b60405180910390f35b610279611248565b6040516102869190612c64565b60405180910390f35b6102a960048036038101906102a4919061298c565b61126f565b005b6102c560048036038101906102c09190612c7d565b611354565b6040516102d29190612cbb565b60405180910390f35b6102f560048036038101906102f091906125b2565b6113e2565b005b610311600480360381019061030c9190612e00565b611505565b005b61032d60048036038101906103289190612c7d565b611658565b60405161033a9190612cbb565b60405180910390f35b61035d60048036038101906103589190612f82565b611682565b005b610379600480360381019061037491906125b2565b611826565b60405161038e99989796959493929190613040565b60405180910390f35b6103b160048036038101906103ac919061294e565b6119b3565b005b6103cd60048036038101906103c891906130d9565b611b96565b6040516103da91906128b6565b60405180910390f35b6103fd60048036038101906103f891906131b6565b6120dc565b60405161040a91906128b6565b60405180910390f35b61042d600480360381019061042891906125b2565b612107565b005b6104496004803603810190610444919061298c565b61222b565b005b6104536123fe565b81600154811115801561046557505f81115b6104a4576040517f08c379a000000000000000000000000000000000000000000000000000000000815260040161049b9061323e565b60405180910390fd5b825f60025f8381526020019081526020015f20604051806101400160405290815f8201548152602001600182015481526020016002820180546104e690613289565b80601f016020809104026020016040519081016040528092919081815260200182805461051290613289565b801561055d5780601f106105345761010080835404028352916020019161055d565b820191905f5260205f20905b81548152906001019060200180831161054057829003601f168201915b50505050508152602001600382015f9054906101000a900473ffffffffffffffffffffffffffffffffffffffff1673ffffffffffffffffffffffffffffffffffffffff1673ffffffffffffffffffffffffffffffffffffffff16815260200160048201548152602001600582015f9054906101000a900460ff1615151515815260200160068201805480602002602001604051908101604052809291908181526020015f905b828210156106ab578382905f5260205f2001805461062090613289565b80601f016020809104026020016040519081016040528092919081815260200182805461064c90613289565b80156106975780601f1061066e57610100808354040283529160200191610697565b820191905f5260205f20905b81548152906001019060200180831161067a57829003601f168201915b505050505081526020019060010190610603565b505050508152602001600782015481526020016008820180546106cd90613289565b80601f01602080910402602001604051908101604052809291908181526020018280546106f990613289565b80156107445780601f1061071b57610100808354040283529160200191610744565b820191905f5260205f20905b81548152906001019060200180831161072757829003601f168201915b50505050508152602001600982015f9054906101000a900460ff16151515158152505090503373ffffffffffffffffffffffffffffffffffffffff16816060015173ffffffffffffffffffffffffffffffffffffffff1614806107a957508061012001515b80610839575060065f826060015173ffffffffffffffffffffffffffffffffffffffff1673ffffffffffffffffffffffffffffffffffffffff1681526020019081526020015f205f3373ffffffffffffffffffffffffffffffffffffffff1673ffffffffffffffffffffffffffffffffffffffff1681526020019081526020015f205f9054906101000a900460ff165b806108765750610847611248565b73ffffffffffffffffffffffffffffffffffffffff163373ffffffffffffffffffffffffffffffffffffffff16145b6108b5576040517f08c379a00000000000000000000000000000000000000000000000000000000081526004016108ac90613303565b60405180910390fd5b60025f8681526020019081526020015f20604051806101400160405290815f8201548152602001600182015481526020016002820180546108f590613289565b80601f016020809104026020016040519081016040528092919081815260200182805461092190613289565b801561096c5780601f106109435761010080835404028352916020019161096c565b820191905f5260205f20905b81548152906001019060200180831161094f57829003601f168201915b50505050508152602001600382015f9054906101000a900473ffffffffffffffffffffffffffffffffffffffff1673ffffffffffffffffffffffffffffffffffffffff1673ffffffffffffffffffffffffffffffffffffffff16815260200160048201548152602001600582015f9054906101000a900460ff1615151515815260200160068201805480602002602001604051908101604052809291908181526020015f905b82821015610aba578382905f5260205f20018054610a2f90613289565b80601f0160208091040260200160405190810160405280929190818152602001828054610a5b90613289565b8015610aa65780601f10610a7d57610100808354040283529160200191610aa6565b820191905f5260205f20905b815481529060010190602001808311610a8957829003601f168201915b505050505081526020019060010190610a12565b50505050815260200160078201548152602001600882018054610adc90613289565b80601f0160208091040260200160405190810160405280929190818152602001828054610b0890613289565b8015610b535780601f10610b2a57610100808354040283529160200191610b53565b820191905f5260205f20905b815481529060010190602001808311610b3657829003601f168201915b50505050508152602001600982015f9054906101000a900460ff1615151515815250509350505050919050565b5f600154905090565b6003602052805f5260405f205f915090505481565b816001548111158015610bb057505f81115b610bef576040517f08c379a0000000000000000000000000000000000000000000000000000000008152600401610be69061323e565b60405180910390fd5b823373ffffffffffffffffffffffffffffffffffffffff1660025f8381526020019081526020015f206003015f9054906101000a900473ffffffffffffffffffffffffffffffffffffffff1673ffffffffffffffffffffffffffffffffffffffff1614610c91576040517f08c379a0000000000000000000000000000000000000000000000000000000008152600401610c889061336b565b60405180910390fd5b5f73ffffffffffffffffffffffffffffffffffffffff168373ffffffffffffffffffffffffffffffffffffffff1603610cff576040517f08c379a0000000000000000000000000000000000000000000000000000000008152600401610cf6906133d3565b60405180910390fd5b3373ffffffffffffffffffffffffffffffffffffffff168373ffffffffffffffffffffffffffffffffffffffff1603610d6d576040517f08c379a0000000000000000000000000000000000000000000000000000000008152600401610d649061343b565b60405180910390fd5b600160065f3373ffffffffffffffffffffffffffffffffffffffff1673ffffffffffffffffffffffffffffffffffffffff1681526020019081526020015f205f8573ffffffffffffffffffffffffffffffffffffffff1673ffffffffffffffffffffffffffffffffffffffff1681526020019081526020015f205f6101000a81548160ff0219169083151502179055508273ffffffffffffffffffffffffffffffffffffffff163373ffffffffffffffffffffffffffffffffffffffff16857f97a8264d9d0b9e21370349f9b49be012a5d1e27829879df8ba166dba48f898c660405160405180910390a450505050565b610e666122af565b610e6f5f612336565b565b606060055f8373ffffffffffffffffffffffffffffffffffffffff1673ffffffffffffffffffffffffffffffffffffffff1681526020019081526020015f20805480602002602001604051908101604052809291908181526020018280548015610ef857602002820191905f5260205f20905b815481526020019060010190808311610ee4575b50505050509050919050565b6004602052805f5260405f205f91509050805f018054610f2390613289565b80601f0160208091040260200160405190810160405280929190818152602001828054610f4f90613289565b8015610f9a5780601f10610f7157610100808354040283529160200191610f9a565b820191905f5260205f20905b815481529060010190602001808311610f7d57829003601f168201915b505050505090806001018054610faf90613289565b80601f0160208091040260200160405190810160405280929190818152602001828054610fdb90613289565b80156110265780601f10610ffd57610100808354040283529160200191611026565b820191905f5260205f20905b81548152906001019060200180831161100957829003601f168201915b505050505090806002015f9054906101000a900460ff16908060030154908060050154905085565b611056612467565b60045f8373ffffffffffffffffffffffffffffffffffffffff1673ffffffffffffffffffffffffffffffffffffffff1681526020019081526020015f206040518060c00160405290815f820180546110ad90613289565b80601f01602080910402602001604051908101604052809291908181526020018280546110d990613289565b80156111245780601f106110fb57610100808354040283529160200191611124565b820191905f5260205f20905b81548152906001019060200180831161110757829003601f168201915b5050505050815260200160018201805461113d90613289565b80601f016020809104026020016040519081016040528092919081815260200182805461116990613289565b80156111b45780601f1061118b576101008083540402835291602001916111b4565b820191905f5260205f20905b81548152906001019060200180831161119757829003601f168201915b50505050508152602001600282015f9054906101000a900460ff16151515158152602001600382015481526020016004820180548060200260200160405190810160405280929190818152602001828054801561122e57602002820191905f5260205f20905b81548152602001906001019080831161121a575b505050505081526020016005820154815250509050919050565b5f805f9054906101000a900473ffffffffffffffffffffffffffffffffffffffff16905090565b6112776122af565b5f60045f8373ffffffffffffffffffffffffffffffffffffffff1673ffffffffffffffffffffffffffffffffffffffff1681526020019081526020015f2060030154116112f9576040517f08c379a00000000000000000000000000000000000000000000000000000000081526004016112f0906134a3565b60405180910390fd5b600160045f8373ffffffffffffffffffffffffffffffffffffffff1673ffffffffffffffffffffffffffffffffffffffff1681526020019081526020015f206002015f6101000a81548160ff02191690831515021790555050565b5f60065f8473ffffffffffffffffffffffffffffffffffffffff1673ffffffffffffffffffffffffffffffffffffffff1681526020019081526020015f205f8373ffffffffffffffffffffffffffffffffffffffff1673ffffffffffffffffffffffffffffffffffffffff1681526020019081526020015f205f9054906101000a900460ff16905092915050565b8060015481111580156113f457505f81115b611433576040517f08c379a000000000000000000000000000000000000000000000000000000000815260040161142a9061323e565b60405180910390fd5b813373ffffffffffffffffffffffffffffffffffffffff1660025f8381526020019081526020015f206003015f9054906101000a900473ffffffffffffffffffffffffffffffffffffffff1673ffffffffffffffffffffffffffffffffffffffff16146114d5576040517f08c379a00000000000000000000000000000000000000000000000000000000081526004016114cc9061336b565b60405180910390fd5b5f60025f8581526020019081526020015f206005015f6101000a81548160ff021916908315150217905550505050565b5f825111611548576040517f08c379a000000000000000000000000000000000000000000000000000000000815260040161153f9061350b565b60405180910390fd5b5f81511161158b576040517f08c379a000000000000000000000000000000000000000000000000000000000815260040161158290613573565b60405180910390fd5b5f60045f3373ffffffffffffffffffffffffffffffffffffffff1673ffffffffffffffffffffffffffffffffffffffff1681526020019081526020015f2090505f8160030154036115e0574281600301819055505b82815f0190816115f0919061372e565b5081816001019081611602919061372e565b503373ffffffffffffffffffffffffffffffffffffffff167f6eb3a1c6a4675ba92d44e090515b1ceea358f26565d2854df0c99c3f5eaf9850848460405161164b9291906137fd565b60405180910390a2505050565b6006602052815f5260405f20602052805f5260405f205f915091509054906101000a900460ff1681565b84600154811115801561169457505f81115b6116d3576040517f08c379a00000000000000000000000000000000000000000000000000000000081526004016116ca9061323e565b60405180910390fd5b853373ffffffffffffffffffffffffffffffffffffffff1660025f8381526020019081526020015f206003015f9054906101000a900473ffffffffffffffffffffffffffffffffffffffff1673ffffffffffffffffffffffffffffffffffffffff1614611775576040517f08c379a000000000000000000000000000000000000000000000000000000000815260040161176c9061336b565b60405180910390fd5b5f60025f8981526020019081526020015f209050868160060190805190602001906117a192919061249c565b50858160070181905550848160080190816117bc919061372e565b5083816009015f6101000a81548160ff0219169083151502179055503373ffffffffffffffffffffffffffffffffffffffff16887f3d3edc34be15ba74f3c3ec9dbcc0ca7c7ad160f5d56e5460d4389565a19f64f860405160405180910390a35050505050505050565b6002602052805f5260405f205f91509050805f01549080600101549080600201805461185190613289565b80601f016020809104026020016040519081016040528092919081815260200182805461187d90613289565b80156118c85780601f1061189f576101008083540402835291602001916118c8565b820191905f5260205f20905b8154815290600101906020018083116118ab57829003601f168201915b505050505090806003015f9054906101000a900473ffffffffffffffffffffffffffffffffffffffff1690806004015490806005015f9054906101000a900460ff169080600701549080600801805461192090613289565b80601f016020809104026020016040519081016040528092919081815260200182805461194c90613289565b80156119975780601f1061196e57610100808354040283529160200191611997565b820191905f5260205f20905b81548152906001019060200180831161197a57829003601f168201915b505050505090806009015f9054906101000a900460ff16905089565b8160015481111580156119c557505f81115b611a04576040517f08c379a00000000000000000000000000000000000000000000000000000000081526004016119fb9061323e565b60405180910390fd5b823373ffffffffffffffffffffffffffffffffffffffff1660025f8381526020019081526020015f206003015f9054906101000a900473ffffffffffffffffffffffffffffffffffffffff1673ffffffffffffffffffffffffffffffffffffffff1614611aa6576040517f08c379a0000000000000000000000000000000000000000000000000000000008152600401611a9d9061336b565b60405180910390fd5b5f60065f3373ffffffffffffffffffffffffffffffffffffffff1673ffffffffffffffffffffffffffffffffffffffff1681526020019081526020015f205f8573ffffffffffffffffffffffffffffffffffffffff1673ffffffffffffffffffffffffffffffffffffffff1681526020019081526020015f205f6101000a81548160ff0219169083151502179055508273ffffffffffffffffffffffffffffffffffffffff163373ffffffffffffffffffffffffffffffffffffffff16857f260547d4038414ef72f081dcde91825693dff9bc433178f3e92ad36e0cd2275060405160405180910390a450505050565b5f60075f9054906101000a900460ff1615611be6576040517f08c379a0000000000000000000000000000000000000000000000000000000008152600401611bdd9061387c565b60405180910390fd5b600160075f6101000a81548160ff0219169083151502179055505f801b8703611c44576040517f08c379a0000000000000000000000000000000000000000000000000000000008152600401611c3b906138e4565b60405180910390fd5b5f865111611c87576040517f08c379a0000000000000000000000000000000000000000000000000000000008152600401611c7e9061394c565b60405180910390fd5b5f60035f8981526020019081526020015f205414611cda576040517f08c379a0000000000000000000000000000000000000000000000000000000008152600401611cd1906139b4565b60405180910390fd5b60015f815480929190611cec906139ff565b91905055505f60015490506040518061014001604052808281526020018981526020018881526020013373ffffffffffffffffffffffffffffffffffffffff16815260200142815260200160011515815260200187815260200186815260200185815260200184151581525060025f8381526020019081526020015f205f820151815f0155602082015181600101556040820151816002019081611d90919061372e565b506060820151816003015f6101000a81548173ffffffffffffffffffffffffffffffffffffffff021916908373ffffffffffffffffffffffffffffffffffffffff1602179055506080820151816004015560a0820151816005015f6101000a81548160ff02191690831515021790555060c0820151816006019080519060200190611e1c92919061249c565b5060e08201518160070155610100820151816008019081611e3d919061372e565b50610120820151816009015f6101000a81548160ff0219169083151502179055509050508060035f8a81526020019081526020015f208190555060055f3373ffffffffffffffffffffffffffffffffffffffff1673ffffffffffffffffffffffffffffffffffffffff1681526020019081526020015f2081908060018154018082558091505060019003905f5260205f20015f909190919091505560045f3373ffffffffffffffffffffffffffffffffffffffff1673ffffffffffffffffffffffffffffffffffffffff1681526020019081526020015f2060040181908060018154018082558091505060019003905f5260205f20015f90919091909150555f60045f3373ffffffffffffffffffffffffffffffffffffffff1673ffffffffffffffffffffffffffffffffffffffff1681526020019081526020015f206003015403612065574260045f3373ffffffffffffffffffffffffffffffffffffffff1673ffffffffffffffffffffffffffffffffffffffff1681526020019081526020015f20600301819055505f60045f3373ffffffffffffffffffffffffffffffffffffffff1673ffffffffffffffffffffffffffffffffffffffff1681526020019081526020015f206002015f6101000a81548160ff0219169083151502179055505f60045f3373ffffffffffffffffffffffffffffffffffffffff1673ffffffffffffffffffffffffffffffffffffffff1681526020019081526020015f20600501819055505b3373ffffffffffffffffffffffffffffffffffffffff1688827f3ccd1177c8ab2115385d95edceef7099111e899fd95eff4f10570da23bbc17f38a6040516120ad9190613a46565b60405180910390a4809150505f60075f6101000a81548160ff0219169083151502179055509695505050505050565b6005602052815f5260405f2081815481106120f5575f80fd5b905f5260205f20015f91509150505481565b80600154811115801561211957505f81115b612158576040517f08c379a000000000000000000000000000000000000000000000000000000000815260040161214f9061323e565b60405180910390fd5b813373ffffffffffffffffffffffffffffffffffffffff1660025f8381526020019081526020015f206003015f9054906101000a900473ffffffffffffffffffffffffffffffffffffffff1673ffffffffffffffffffffffffffffffffffffffff16146121fa576040517f08c379a00000000000000000000000000000000000000000000000000000000081526004016121f19061336b565b60405180910390fd5b600160025f8581526020019081526020015f206005015f6101000a81548160ff021916908315150217905550505050565b6122336122af565b5f73ffffffffffffffffffffffffffffffffffffffff168173ffffffffffffffffffffffffffffffffffffffff16036122a3575f6040517f1e4fbdf700000000000000000000000000000000000000000000000000000000815260040161229a9190612c64565b60405180910390fd5b6122ac81612336565b50565b6122b76123f7565b73ffffffffffffffffffffffffffffffffffffffff166122d5611248565b73ffffffffffffffffffffffffffffffffffffffff1614612334576122f86123f7565b6040517f118cdaa700000000000000000000000000000000000000000000000000000000815260040161232b9190612c64565b60405180910390fd5b565b5f805f9054906101000a900473ffffffffffffffffffffffffffffffffffffffff169050815f806101000a81548173ffffffffffffffffffffffffffffffffffffffff021916908373ffffffffffffffffffffffffffffffffffffffff1602179055508173ffffffffffffffffffffffffffffffffffffffff168173ffffffffffffffffffffffffffffffffffffffff167f8be0079c531659141344cd1fd0a4f28419497f9722a3daafe3b4186f6b6457e060405160405180910390a35050565b5f33905090565b6040518061014001604052805f81526020015f8019168152602001606081526020015f73ffffffffffffffffffffffffffffffffffffffff1681526020015f81526020015f15158152602001606081526020015f8152602001606081526020015f151581525090565b6040518060c0016040528060608152602001606081526020015f151581526020015f8152602001606081526020015f81525090565b828054828255905f5260205f209081019282156124e2579160200282015b828111156124e15782518290816124d1919061372e565b50916020019190600101906124ba565b5b5090506124ef91906124f3565b5090565b5b80821115612512575f81816125099190612516565b506001016124f4565b5090565b50805461252290613289565b5f825580601f106125335750612550565b601f0160209004905f5260205f209081019061254f9190612553565b5b50565b5b8082111561256a575f815f905550600101612554565b5090565b5f604051905090565b5f80fd5b5f80fd5b5f819050919050565b6125918161257f565b811461259b575f80fd5b50565b5f813590506125ac81612588565b92915050565b5f602082840312156125c7576125c6612577565b5b5f6125d48482850161259e565b91505092915050565b6125e68161257f565b82525050565b5f819050919050565b6125fe816125ec565b82525050565b5f81519050919050565b5f82825260208201905092915050565b5f5b8381101561263b578082015181840152602081019050612620565b5f8484015250505050565b5f601f19601f8301169050919050565b5f61266082612604565b61266a818561260e565b935061267a81856020860161261e565b61268381612646565b840191505092915050565b5f73ffffffffffffffffffffffffffffffffffffffff82169050919050565b5f6126b78261268e565b9050919050565b6126c7816126ad565b82525050565b5f8115159050919050565b6126e1816126cd565b82525050565b5f81519050919050565b5f82825260208201905092915050565b5f819050602082019050919050565b5f61271b8383612656565b905092915050565b5f602082019050919050565b5f612739826126e7565b61274381856126f1565b93508360208202850161275585612701565b805f5b8581101561279057848403895281516127718582612710565b945061277c83612723565b925060208a01995050600181019050612758565b50829750879550505050505092915050565b5f61014083015f8301516127b85f8601826125dd565b5060208301516127cb60208601826125f5565b50604083015184820360408601526127e38282612656565b91505060608301516127f860608601826126be565b50608083015161280b60808601826125dd565b5060a083015161281e60a08601826126d8565b5060c083015184820360c0860152612836828261272f565b91505060e083015161284b60e08601826125dd565b506101008301518482036101008601526128658282612656565b91505061012083015161287c6101208601826126d8565b508091505092915050565b5f6020820190508181035f83015261289f81846127a2565b905092915050565b6128b08161257f565b82525050565b5f6020820190506128c95f8301846128a7565b92915050565b6128d8816125ec565b81146128e2575f80fd5b50565b5f813590506128f3816128cf565b92915050565b5f6020828403121561290e5761290d612577565b5b5f61291b848285016128e5565b91505092915050565b61292d816126ad565b8114612937575f80fd5b50565b5f8135905061294881612924565b92915050565b5f806040838503121561296457612963612577565b5b5f6129718582860161259e565b92505060206129828582860161293a565b9150509250929050565b5f602082840312156129a1576129a0612577565b5b5f6129ae8482850161293a565b91505092915050565b5f81519050919050565b5f82825260208201905092915050565b5f819050602082019050919050565b5f6129eb83836125dd565b60208301905092915050565b5f602082019050919050565b5f612a0d826129b7565b612a1781856129c1565b9350612a22836129d1565b805f5b83811015612a52578151612a3988826129e0565b9750612a44836129f7565b925050600181019050612a25565b5085935050505092915050565b5f6020820190508181035f830152612a778184612a03565b905092915050565b5f82825260208201905092915050565b5f612a9982612604565b612aa38185612a7f565b9350612ab381856020860161261e565b612abc81612646565b840191505092915050565b612ad0816126cd565b82525050565b5f60a0820190508181035f830152612aee8188612a8f565b90508181036020830152612b028187612a8f565b9050612b116040830186612ac7565b612b1e60608301856128a7565b612b2b60808301846128a7565b9695505050505050565b5f82825260208201905092915050565b5f612b4f826129b7565b612b598185612b35565b9350612b64836129d1565b805f5b83811015612b94578151612b7b88826129e0565b9750612b86836129f7565b925050600181019050612b67565b5085935050505092915050565b5f60c083015f8301518482035f860152612bbb8282612656565b91505060208301518482036020860152612bd58282612656565b9150506040830151612bea60408601826126d8565b506060830151612bfd60608601826125dd565b5060808301518482036080860152612c158282612b45565b91505060a0830151612c2a60a08601826125dd565b508091505092915050565b5f6020820190508181035f830152612c4d8184612ba1565b905092915050565b612c5e816126ad565b82525050565b5f602082019050612c775f830184612c55565b92915050565b5f8060408385031215612c9357612c92612577565b5b5f612ca08582860161293a565b9250506020612cb18582860161293a565b9150509250929050565b5f602082019050612cce5f830184612ac7565b92915050565b5f80fd5b5f80fd5b7f4e487b71000000000000000000000000000000000000000000000000000000005f52604160045260245ffd5b612d1282612646565b810181811067ffffffffffffffff82111715612d3157612d30612cdc565b5b80604052505050565b5f612d4361256e565b9050612d4f8282612d09565b919050565b5f67ffffffffffffffff821115612d6e57612d6d612cdc565b5b612d7782612646565b9050602081019050919050565b828183375f83830152505050565b5f612da4612d9f84612d54565b612d3a565b905082815260208101848484011115612dc057612dbf612cd8565b5b612dcb848285612d84565b509392505050565b5f82601f830112612de757612de6612cd4565b5b8135612df7848260208601612d92565b91505092915050565b5f8060408385031215612e1657612e15612577565b5b5f83013567ffffffffffffffff811115612e3357612e3261257b565b5b612e3f85828601612dd3565b925050602083013567ffffffffffffffff811115612e6057612e5f61257b565b5b612e6c85828601612dd3565b9150509250929050565b5f67ffffffffffffffff821115612e9057612e8f612cdc565b5b602082029050602081019050919050565b5f80fd5b5f612eb7612eb284612e76565b612d3a565b90508083825260208201905060208402830185811115612eda57612ed9612ea1565b5b835b81811015612f2157803567ffffffffffffffff811115612eff57612efe612cd4565b5b808601612f0c8982612dd3565b85526020850194505050602081019050612edc565b5050509392505050565b5f82601f830112612f3f57612f3e612cd4565b5b8135612f4f848260208601612ea5565b91505092915050565b612f61816126cd565b8114612f6b575f80fd5b50565b5f81359050612f7c81612f58565b92915050565b5f805f805f60a08688031215612f9b57612f9a612577565b5b5f612fa88882890161259e565b955050602086013567ffffffffffffffff811115612fc957612fc861257b565b5b612fd588828901612f2b565b9450506040612fe68882890161259e565b935050606086013567ffffffffffffffff8111156130075761300661257b565b5b61301388828901612dd3565b925050608061302488828901612f6e565b9150509295509295909350565b61303a816125ec565b82525050565b5f610120820190506130545f83018c6128a7565b613061602083018b613031565b8181036040830152613073818a612a8f565b90506130826060830189612c55565b61308f60808301886128a7565b61309c60a0830187612ac7565b6130a960c08301866128a7565b81810360e08301526130bb8185612a8f565b90506130cb610100830184612ac7565b9a9950505050505050505050565b5f805f805f8060c087890312156130f3576130f2612577565b5b5f61310089828a016128e5565b965050602087013567ffffffffffffffff8111156131215761312061257b565b5b61312d89828a01612dd3565b955050604087013567ffffffffffffffff81111561314e5761314d61257b565b5b61315a89828a01612f2b565b945050606061316b89828a0161259e565b935050608087013567ffffffffffffffff81111561318c5761318b61257b565b5b61319889828a01612dd3565b92505060a06131a989828a01612f6e565b9150509295509295509295565b5f80604083850312156131cc576131cb612577565b5b5f6131d98582860161293a565b92505060206131ea8582860161259e565b9150509250929050565b7f526573756d6520646f6573206e6f7420657869737400000000000000000000005f82015250565b5f613228601583612a7f565b9150613233826131f4565b602082019050919050565b5f6020820190508181035f8301526132558161321c565b9050919050565b7f4e487b71000000000000000000000000000000000000000000000000000000005f52602260045260245ffd5b5f60028204905060018216806132a057607f821691505b6020821081036132b3576132b261325c565b5b50919050565b7f4163636573732064656e696564000000000000000000000000000000000000005f82015250565b5f6132ed600d83612a7f565b91506132f8826132b9565b602082019050919050565b5f6020820190508181035f83015261331a816132e1565b9050919050565b7f4e6f742074686520726573756d65206f776e65720000000000000000000000005f82015250565b5f613355601483612a7f565b915061336082613321565b602082019050919050565b5f6020820190508181035f83015261338281613349565b9050919050565b7f496e76616c6964207265637275697465722061646472657373000000000000005f82015250565b5f6133bd601983612a7f565b91506133c882613389565b602082019050919050565b5f6020820190508181035f8301526133ea816133b1565b9050919050565b7f43616e6e6f74206772616e742061636365737320746f20796f757273656c66005f82015250565b5f613425601f83612a7f565b9150613430826133f1565b602082019050919050565b5f6020820190508181035f83015261345281613419565b9050919050565b7f43616e646964617465206e6f74207265676973746572656400000000000000005f82015250565b5f61348d601883612a7f565b915061349882613459565b602082019050919050565b5f6020820190508181035f8301526134ba81613481565b9050919050565b7f4e616d652063616e6e6f7420626520656d7074790000000000000000000000005f82015250565b5f6134f5601483612a7f565b9150613500826134c1565b602082019050919050565b5f6020820190508181035f830152613522816134e9565b9050919050565b7f456d61696c2063616e6e6f7420626520656d70747900000000000000000000005f82015250565b5f61355d601583612a7f565b915061356882613529565b602082019050919050565b5f6020820190508181035f83015261358a81613551565b9050919050565b5f819050815f5260205f209050919050565b5f6020601f8301049050919050565b5f82821b905092915050565b5f600883026135ed7fffffffffffffffffffffffffffffffffffffffffffffffffffffffffffffffff826135b2565b6135f786836135b2565b95508019841693508086168417925050509392505050565b5f819050919050565b5f61363261362d6136288461257f565b61360f565b61257f565b9050919050565b5f819050919050565b61364b83613618565b61365f61365782613639565b8484546135be565b825550505050565b5f90565b613673613667565b61367e818484613642565b505050565b5b818110156136a1576136965f8261366b565b600181019050613684565b5050565b601f8211156136e6576136b781613591565b6136c0846135a3565b810160208510156136cf578190505b6136e36136db856135a3565b830182613683565b50505b505050565b5f82821c905092915050565b5f6137065f19846008026136eb565b1980831691505092915050565b5f61371e83836136f7565b9150826002028217905092915050565b61373782612604565b67ffffffffffffffff8111156137505761374f612cdc565b5b61375a8254613289565b6137658282856136a5565b5f60209050601f831160018114613796575f8415613784578287015190505b61378e8582613713565b8655506137f5565b601f1984166137a486613591565b5f5b828110156137cb578489015182556001820191506020850194506020810190506137a6565b868310156137e857848901516137e4601f8916826136f7565b8355505b6001600288020188555050505b505050505050565b5f6040820190508181035f8301526138158185612a8f565b905081810360208301526138298184612a8f565b90509392505050565b7f5265656e7472616e637947756172643a207265656e7472616e742063616c6c005f82015250565b5f613866601f83612a7f565b915061387182613832565b602082019050919050565b5f6020820190508181035f8301526138938161385a565b9050919050565b7f496e76616c696420726573756d652068617368000000000000000000000000005f82015250565b5f6138ce601383612a7f565b91506138d98261389a565b602082019050919050565b5f6020820190508181035f8301526138fb816138c2565b9050919050565b7f4950465320686173682063616e6e6f7420626520656d707479000000000000005f82015250565b5f613936601983612a7f565b915061394182613902565b602082019050919050565b5f6020820190508181035f8301526139638161392a565b9050919050565b7f526573756d6520616c72656164792072656769737465726564000000000000005f82015250565b5f61399e601983612a7f565b91506139a98261396a565b602082019050919050565b5f6020820190508181035f8301526139cb81613992565b9050919050565b7f4e487b71000000000000000000000000000000000000000000000000000000005f52601160045260245ffd5b5f613a098261257f565b91507fffffffffffffffffffffffffffffffffffffffffffffffffffffffffffffffff8203613a3b57613a3a6139d2565b5b600182019050919050565b5f6020820190508181035f830152613a5e8184612a8f565b90509291505056fea26469706673582212204cf1db76ff9eeb48b52150c8e03464b6be4febfef1a921de0b2d01a6f74ea7ac64736f6c63430008150033",
  "immutableReferences": {},
  "source": "// SPDX-License-Identifier: MIT\r\npragma solidity ^0.8.0;\r\n\r\nimport \"@openzeppelin/contracts/access/Ownable.sol\";\r\n\r\n/**\r\n * @title ResumeRegistry\r\n * @dev Smart contract for registering and managing resume metadata on blockchain\r\n * @author AI ResumeMatch Team\r\n */\r\ncontract ResumeRegistry is Ownable {\r\n    \r\n    // Counter for resume IDs\r\n    uint256 private _resumeIdCounter;\r\n    \r\n    // Struct to store resume information\r\n    struct Resume {\r\n        uint256 id;\r\n        bytes32 resumeHash;         // Hash of the resume content\r\n        string ipfsHash;            // IPFS hash for storing resume file\r\n        address candidate;          // Address of the resume owner\r\n        uint256 timestamp;          // When the resume was registered\r\n        bool isActive;              // Whether the resume is active\r\n        string[] skills;            // List of skills extracted\r\n        uint256 experienceYears;    // Years of experience\r\n        string education;           // Education details\r\n        bool isPublic;              // Whether resume is publicly viewable\r\n    }\r\n    \r\n    // Struct for candidate profile\r\n    struct CandidateProfile {\r\n        string name;\r\n        string email;\r\n        bool isVerified;\r\n        uint256 registrationDate;\r\n        uint256[] resumeIds;\r\n        uint256 totalViews;\r\n    }\r\n    \r\n    // Mappings\r\n    mapping(uint256 => Resume) public resumes;\r\n    mapping(bytes32 => uint256) public hashToResumeId;\r\n    mapping(address => CandidateProfile) public candidates;\r\n    mapping(address => uint256[]) public candidateResumes;\r\n    mapping(address => mapping(address => bool)) public resumeAccessPermissions;\r\n    \r\n    // Events\r\n    event ResumeRegistered(\r\n        uint256 indexed resumeId,\r\n        bytes32 indexed resumeHash,\r\n        address indexed candidate,\r\n        string ipfsHash\r\n    );\r\n    \r\n    event ResumeUpdated(\r\n        uint256 indexed resumeId,\r\n        address indexed candidate\r\n    );\r\n    \r\n    event AccessGranted(\r\n        uint256 indexed resumeId,\r\n        address indexed candidate,\r\n        address indexed recruiter\r\n    );\r\n    \r\n    event AccessRevoked(\r\n        uint256 indexed resumeId,\r\n        address indexed candidate,\r\n        address indexed recruiter\r\n    );\r\n    \r\n    event ProfileUpdated(\r\n        address indexed candidate,\r\n        string name,\r\n        string email\r\n    );\r\n    \r\n    // Modifiers\r\n    modifier onlyResumeOwner(uint256 _resumeId) {\r\n        require(resumes[_resumeId].candidate == msg.sender, \"Not the resume owner\");\r\n        _;\r\n    }\r\n    \r\n    modifier resumeExists(uint256 _resumeId) {\r\n        require(_resumeId <= _resumeIdCounter && _resumeId > 0, \"Resume does not exist\");\r\n        _;\r\n    }\r\n    \r\n    modifier hasAccess(uint256 _resumeId) {\r\n        Resume memory resume = resumes[_resumeId];\r\n        require(\r\n            resume.candidate == msg.sender || \r\n            resume.isPublic || \r\n            resumeAccessPermissions[resume.candidate][msg.sender] ||\r\n            msg.sender == owner(),\r\n            \"Access denied\"\r\n        );\r\n        _;\r\n    }\r\n    \r\n    // Reentrancy protection\r\n    bool private _locked;\r\n    modifier nonReentrant() {\r\n        require(!_locked, \"ReentrancyGuard: reentrant call\");\r\n        _locked = true;\r\n        _;\r\n        _locked = false;\r\n    }\r\n    \r\n    /**\r\n    * @dev Constructor - using new constructor syntax\r\n    */\r\n    constructor() Ownable(msg.sender) {\r\n        _resumeIdCounter = 0;\r\n    }\r\n    \r\n    /**\r\n     * @dev Register a new resume on the blockchain\r\n     * @param _resumeHash Hash of the resume content\r\n     * @param _ipfsHash IPFS hash of the resume file\r\n     * @param _skills Array of skills\r\n     * @param _experienceYears Years of experience\r\n     * @param _education Education details\r\n     * @param _isPublic Whether the resume should be publicly viewable\r\n     */\r\n    function registerResume(\r\n        bytes32 _resumeHash,\r\n        string memory _ipfsHash,\r\n        string[] memory _skills,\r\n        uint256 _experienceYears,\r\n        string memory _education,\r\n        bool _isPublic\r\n    ) external nonReentrant returns (uint256) {\r\n        require(_resumeHash != bytes32(0), \"Invalid resume hash\");\r\n        require(bytes(_ipfsHash).length > 0, \"IPFS hash cannot be empty\");\r\n        require(hashToResumeId[_resumeHash] == 0, \"Resume already registered\");\r\n        \r\n        // Increment resume counter\r\n        _resumeIdCounter++;\r\n        uint256 newResumeId = _resumeIdCounter;\r\n        \r\n        // Create new resume\r\n        resumes[newResumeId] = Resume({\r\n            id: newResumeId,\r\n            resumeHash: _resumeHash,\r\n            ipfsHash: _ipfsHash,\r\n            candidate: msg.sender,\r\n            timestamp: block.timestamp,\r\n            isActive: true,\r\n            skills: _skills,\r\n            experienceYears: _experienceYears,\r\n            education: _education,\r\n            isPublic: _isPublic\r\n        });\r\n        \r\n        // Map hash to ID\r\n        hashToResumeId[_resumeHash] = newResumeId;\r\n        \r\n        // Add to candidate's resume list\r\n        candidateResumes[msg.sender].push(newResumeId);\r\n        candidates[msg.sender].resumeIds.push(newResumeId);\r\n        \r\n        // Initialize candidate profile if first resume\r\n        if (candidates[msg.sender].registrationDate == 0) {\r\n            candidates[msg.sender].registrationDate = block.timestamp;\r\n            candidates[msg.sender].isVerified = false;\r\n            candidates[msg.sender].totalViews = 0;\r\n        }\r\n        \r\n        emit ResumeRegistered(newResumeId, _resumeHash, msg.sender, _ipfsHash);\r\n        \r\n        return newResumeId;\r\n    }\r\n    \r\n    /**\r\n     * @dev Update resume information\r\n     * @param _resumeId ID of the resume to update\r\n     * @param _skills Updated skills array\r\n     * @param _experienceYears Updated years of experience\r\n     * @param _education Updated education details\r\n     * @param _isPublic Updated public visibility\r\n     */\r\n    function updateResume(\r\n        uint256 _resumeId,\r\n        string[] memory _skills,\r\n        uint256 _experienceYears,\r\n        string memory _education,\r\n        bool _isPublic\r\n    ) external resumeExists(_resumeId) onlyResumeOwner(_resumeId) {\r\n        Resume storage resume = resumes[_resumeId];\r\n        \r\n        resume.skills = _skills;\r\n        resume.experienceYears = _experienceYears;\r\n        resume.education = _education;\r\n        resume.isPublic = _isPublic;\r\n        \r\n        emit ResumeUpdated(_resumeId, msg.sender);\r\n    }\r\n    \r\n    /**\r\n     * @dev Get resume details (with access control)\r\n     * @param _resumeId ID of the resume\r\n     */\r\n    function getResume(uint256 _resumeId) \r\n        external \r\n        view \r\n        resumeExists(_resumeId) \r\n        hasAccess(_resumeId)\r\n        returns (Resume memory) \r\n    {\r\n        return resumes[_resumeId];\r\n    }\r\n    \r\n    /**\r\n     * @dev Get all resumes for a candidate\r\n     * @param _candidate Address of the candidate\r\n     */\r\n    function getCandidateResumes(address _candidate) \r\n        external \r\n        view \r\n        returns (uint256[] memory) \r\n    {\r\n        return candidateResumes[_candidate];\r\n    }\r\n    \r\n    /**\r\n     * @dev Grant access to a specific recruiter for a resume\r\n     * @param _resumeId ID of the resume\r\n     * @param _recruiter Address of the recruiter\r\n     */\r\n    function grantAccess(uint256 _resumeId, address _recruiter) \r\n        external \r\n        resumeExists(_resumeId) \r\n        onlyResumeOwner(_resumeId) \r\n    {\r\n        require(_recruiter != address(0), \"Invalid recruiter address\");\r\n        require(_recruiter != msg.sender, \"Cannot grant access to yourself\");\r\n        \r\n        resumeAccessPermissions[msg.sender][_recruiter] = true;\r\n        \r\n        emit AccessGranted(_resumeId, msg.sender, _recruiter);\r\n    }\r\n    \r\n    /**\r\n     * @dev Revoke access from a recruiter for a resume\r\n     * @param _resumeId ID of the resume\r\n     * @param _recruiter Address of the recruiter\r\n     */\r\n    function revokeAccess(uint256 _resumeId, address _recruiter) \r\n        external \r\n        resumeExists(_resumeId) \r\n        onlyResumeOwner(_resumeId) \r\n    {\r\n        resumeAccessPermissions[msg.sender][_recruiter] = false;\r\n        \r\n        emit AccessRevoked(_resumeId, msg.sender, _recruiter);\r\n    }\r\n    \r\n    /**\r\n     * @dev Update candidate profile\r\n     * @param _name Candidate's name\r\n     * @param _email Candidate's email\r\n     */\r\n    function updateProfile(string memory _name, string memory _email) external {\r\n        require(bytes(_name).length > 0, \"Name cannot be empty\");\r\n        require(bytes(_email).length > 0, \"Email cannot be empty\");\r\n        \r\n        CandidateProfile storage profile = candidates[msg.sender];\r\n        \r\n        if (profile.registrationDate == 0) {\r\n            profile.registrationDate = block.timestamp;\r\n        }\r\n        \r\n        profile.name = _name;\r\n        profile.email = _email;\r\n        \r\n        emit ProfileUpdated(msg.sender, _name, _email);\r\n    }\r\n    \r\n    /**\r\n     * @dev Verify a candidate's profile (only owner)\r\n     * @param _candidate Address of the candidate to verify\r\n     */\r\n    function verifyCandidate(address _candidate) external onlyOwner {\r\n        require(candidates[_candidate].registrationDate > 0, \"Candidate not registered\");\r\n        candidates[_candidate].isVerified = true;\r\n    }\r\n    \r\n    /**\r\n     * @dev Get candidate profile\r\n     * @param _candidate Address of the candidate\r\n     */\r\n    function getCandidateProfile(address _candidate) \r\n        external \r\n        view \r\n        returns (CandidateProfile memory) \r\n    {\r\n        return candidates[_candidate];\r\n    }\r\n    \r\n    /**\r\n     * @dev Check if recruiter has access to candidate's resumes\r\n     * @param _candidate Candidate address\r\n     * @param _recruiter Recruiter address\r\n     */\r\n    function hasResumeAccess(address _candidate, address _recruiter) \r\n        external \r\n        view \r\n        returns (bool) \r\n    {\r\n        return resumeAccessPermissions[_candidate][_recruiter];\r\n    }\r\n    \r\n    /**\r\n     * @dev Get total number of resumes registered\r\n     */\r\n    function getTotalResumes() external view returns (uint256) {\r\n        return _resumeIdCounter;\r\n    }\r\n    \r\n    /**\r\n     * @dev Deactivate a resume\r\n     * @param _resumeId ID of the resume to deactivate\r\n     */\r\n    function deactivateResume(uint256 _resumeId) \r\n        external \r\n        resumeExists(_resumeId) \r\n        onlyResumeOwner(_resumeId) \r\n    {\r\n        resumes[_resumeId].isActive = false;\r\n    }\r\n    \r\n    /**\r\n     * @dev Activate a resume\r\n     * @param _resumeId ID of the resume to activate\r\n     */\r\n    function activateResume(uint256 _resumeId) \r\n        external \r\n        resumeExists(_resumeId) \r\n        onlyResumeOwner(_resumeId) \r\n    {\r\n        resumes[_resumeId].isActive = true;\r\n    }\r\n}",
  "sourcePath": "C:\\Workspace\\Qriocity\\Machine Learning Projects\\Auditable AI\\blockchain\\contracts\\ResumeRegistry.sol",
  "compiler": {
    "name": "solc",
    "version": "0.8.21+commit.d9974bed.Emscripten.clang"
  },
  "schemaVersion": "3.4.16",
  "updatedAt": "2025-08-29T07:15:22.624Z",
  "networkType": "ethereum",
  "devdoc": {
    "author": "AI ResumeMatch Team",
    "details": "Smart contract for registering and managing resume metadata on blockchain",
    "errors": {
      "OwnableInvalidOwner(address)": [
        {
          "details": "The owner is not a valid owner account. (eg. `address(0)`)"
        }
      ],
      "OwnableUnauthorizedAccount(address)": [
        {
          "details": "The caller account is not authorized to perform an operation."
        }
      ]
    },
    "kind": "dev",
    "methods": {
      "activateResume(uint256)": {
        "details": "Activate a resume",
        "params": {
          "_resumeId": "ID of the resume to activate"
        }
      },
      "constructor": {
        "details": "Constructor - using new constructor syntax"
      },
      "deactivateResume(uint256)": {
        "details": "Deactivate a resume",
        "params": {
          "_resumeId": "ID of the resume to deactivate"
        }
      },
      "getCandidateProfile(address)": {
        "details": "Get candidate profile",
        "params": {
          "_candidate": "Address of the candidate"
        }
      },
      "getCandidateResumes(address)": {
        "details": "Get all resumes for a candidate",
        "params": {
          "_candidate": "Address of the candidate"
        }
      },
      "getResume(uint256)": {
        "details": "Get resume details (with access control)",
        "params": {
          "_resumeId": "ID of the resume"
        }
      },
      "getTotalResumes()": {
        "details": "Get total number of resumes registered"
      },
      "grantAccess(uint256,address)": {
        "details": "Grant access to a specific recruiter for a resume",
        "params": {
          "_recruiter": "Address of the recruiter",
          "_resumeId": "ID of the resume"
        }
      },
      "hasResumeAccess(address,address)": {
        "details": "Check if recruiter has access to candidate's resumes",
        "params": {
          "_candidate": "Candidate address",
          "_recruiter": "Recruiter address"
        }
      },
      "owner()": {
        "details": "Returns the address of the current owner."
      },
      "registerResume(bytes32,string,string[],uint256,string,bool)": {
        "details": "Register a new resume on the blockchain",
        "params": {
          "_education": "Education details",
          "_experienceYears": "Years of experience",
          "_ipfsHash": "IPFS hash of the resume file",
          "_isPublic": "Whether the resume should be publicly viewable",
          "_resumeHash": "Hash of the resume content",
          "_skills": "Array of skills"
        }
      },
      "renounceOwnership()": {
        "details": "Leaves the contract without owner. It will not be possible to call `onlyOwner` functions. Can only be called by the current owner. NOTE: Renouncing ownership will leave the contract without an owner, thereby disabling any functionality that is only available to the owner."
      },
      "revokeAccess(uint256,address)": {
        "details": "Revoke access from a recruiter for a resume",
        "params": {
          "_recruiter": "Address of the recruiter",
          "_resumeId": "ID of the resume"
        }
      },
      "transferOwnership(address)": {
        "details": "Transfers ownership of the contract to a new account (`newOwner`). Can only be called by the current owner."
      },
      "updateProfile(string,string)": {
        "details": "Update candidate profile",
        "params": {
          "_email": "Candidate's email",
          "_name": "Candidate's name"
        }
      },
      "updateResume(uint256,string[],uint256,string,bool)": {
        "details": "Update resume information",
        "params": {
          "_education": "Updated education details",
          "_experienceYears": "Updated years of experience",
          "_isPublic": "Updated public visibility",
          "_resumeId": "ID of the resume to update",
          "_skills": "Updated skills array"
        }
      },
      "verifyCandidate(address)": {
        "details": "Verify a candidate's profile (only owner)",
        "params": {
          "_candidate": "Address of the candidate to verify"
        }
      }
    },
    "title": "ResumeRegistry",
    "version": 1
  },
  "userdoc": {
    "kind": "user",
    "methods": {},
    "version": 1
  }
}